{
  "_format": "hh-sol-artifact-1",
  "contractName": "Outbox",
  "sourceName": "@arbitrum/nitro-contracts/src/bridge/Outbox.sol",
  "abi": [
    {
      "inputs": [],
      "name": "AlreadyInit",
      "type": "error"
    },
    {
      "inputs": [
        {
          "internalType": "uint256",
          "name": "index",
          "type": "uint256"
        }
      ],
      "name": "AlreadySpent",
      "type": "error"
    },
    {
      "inputs": [],
      "name": "BadPostUpgradeInit",
      "type": "error"
    },
    {
      "inputs": [],
      "name": "BridgeCallFailed",
      "type": "error"
    },
    {
      "inputs": [],
      "name": "HadZeroInit",
      "type": "error"
    },
    {
      "inputs": [
        {
          "internalType": "uint256",
          "name": "actualLength",
          "type": "uint256"
        },
        {
          "internalType": "uint256",
          "name": "maxProofLength",
          "type": "uint256"
        }
      ],
      "name": "MerkleProofTooLong",
      "type": "error"
    },
    {
      "inputs": [
        {
          "internalType": "address",
          "name": "sender",
          "type": "address"
        },
        {
          "internalType": "address",
          "name": "owner",
          "type": "address"
        }
      ],
      "name": "NotOwner",
      "type": "error"
    },
    {
      "inputs": [
        {
          "internalType": "address",
          "name": "sender",
          "type": "address"
        },
        {
          "internalType": "address",
          "name": "rollup",
          "type": "address"
        }
      ],
      "name": "NotRollup",
      "type": "error"
    },
    {
      "inputs": [
        {
          "internalType": "uint256",
          "name": "index",
          "type": "uint256"
        },
        {
          "internalType": "uint256",
          "name": "maxIndex",
          "type": "uint256"
        }
      ],
      "name": "PathNotMinimal",
      "type": "error"
    },
    {
      "inputs": [
        {
          "internalType": "uint256",
          "name": "proofLength",
          "type": "uint256"
        }
      ],
      "name": "ProofTooLong",
      "type": "error"
    },
    {
      "inputs": [],
      "name": "RollupNotChanged",
      "type": "error"
    },
    {
      "inputs": [],
      "name": "SimulationOnlyEntrypoint",
      "type": "error"
    },
    {
      "inputs": [
        {
          "internalType": "bytes32",
          "name": "root",
          "type": "bytes32"
        }
      ],
      "name": "UnknownRoot",
      "type": "error"
    },
    {
      "anonymous": false,
      "inputs": [
        {
          "indexed": true,
          "internalType": "address",
          "name": "to",
          "type": "address"
        },
        {
          "indexed": true,
          "internalType": "address",
          "name": "l2Sender",
          "type": "address"
        },
        {
          "indexed": true,
          "internalType": "uint256",
          "name": "zero",
          "type": "uint256"
        },
        {
          "indexed": false,
          "internalType": "uint256",
          "name": "transactionIndex",
          "type": "uint256"
        }
      ],
      "name": "OutBoxTransactionExecuted",
      "type": "event"
    },
    {
      "anonymous": false,
      "inputs": [
        {
          "indexed": true,
          "internalType": "bytes32",
          "name": "outputRoot",
          "type": "bytes32"
        },
        {
          "indexed": true,
          "internalType": "bytes32",
          "name": "l2BlockHash",
          "type": "bytes32"
        }
      ],
      "name": "SendRootUpdated",
      "type": "event"
    },
    {
      "inputs": [],
      "name": "OUTBOX_VERSION",
      "outputs": [
        {
          "internalType": "uint128",
          "name": "",
          "type": "uint128"
        }
      ],
      "stateMutability": "view",
      "type": "function"
    },
    {
      "inputs": [],
      "name": "bridge",
      "outputs": [
        {
          "internalType": "contract IBridge",
          "name": "",
          "type": "address"
        }
      ],
      "stateMutability": "view",
      "type": "function"
    },
    {
      "inputs": [
        {
          "internalType": "address",
          "name": "l2Sender",
          "type": "address"
        },
        {
          "internalType": "address",
          "name": "to",
          "type": "address"
        },
        {
          "internalType": "uint256",
          "name": "l2Block",
          "type": "uint256"
        },
        {
          "internalType": "uint256",
          "name": "l1Block",
          "type": "uint256"
        },
        {
          "internalType": "uint256",
          "name": "l2Timestamp",
          "type": "uint256"
        },
        {
          "internalType": "uint256",
          "name": "value",
          "type": "uint256"
        },
        {
          "internalType": "bytes",
          "name": "data",
          "type": "bytes"
        }
      ],
      "name": "calculateItemHash",
      "outputs": [
        {
          "internalType": "bytes32",
          "name": "",
          "type": "bytes32"
        }
      ],
      "stateMutability": "pure",
      "type": "function"
    },
    {
      "inputs": [
        {
          "internalType": "bytes32[]",
          "name": "proof",
          "type": "bytes32[]"
        },
        {
          "internalType": "uint256",
          "name": "path",
          "type": "uint256"
        },
        {
          "internalType": "bytes32",
          "name": "item",
          "type": "bytes32"
        }
      ],
      "name": "calculateMerkleRoot",
      "outputs": [
        {
          "internalType": "bytes32",
          "name": "",
          "type": "bytes32"
        }
      ],
      "stateMutability": "pure",
      "type": "function"
    },
    {
      "inputs": [
        {
          "internalType": "bytes32[]",
          "name": "proof",
          "type": "bytes32[]"
        },
        {
          "internalType": "uint256",
          "name": "index",
          "type": "uint256"
        },
        {
          "internalType": "address",
          "name": "l2Sender",
          "type": "address"
        },
        {
          "internalType": "address",
          "name": "to",
          "type": "address"
        },
        {
          "internalType": "uint256",
          "name": "l2Block",
          "type": "uint256"
        },
        {
          "internalType": "uint256",
          "name": "l1Block",
          "type": "uint256"
        },
        {
          "internalType": "uint256",
          "name": "l2Timestamp",
          "type": "uint256"
        },
        {
          "internalType": "uint256",
          "name": "value",
          "type": "uint256"
        },
        {
          "internalType": "bytes",
          "name": "data",
          "type": "bytes"
        }
      ],
      "name": "executeTransaction",
      "outputs": [],
      "stateMutability": "nonpayable",
      "type": "function"
    },
    {
      "inputs": [
        {
          "internalType": "uint256",
          "name": "index",
          "type": "uint256"
        },
        {
          "internalType": "address",
          "name": "l2Sender",
          "type": "address"
        },
        {
          "internalType": "address",
          "name": "to",
          "type": "address"
        },
        {
          "internalType": "uint256",
          "name": "l2Block",
          "type": "uint256"
        },
        {
          "internalType": "uint256",
          "name": "l1Block",
          "type": "uint256"
        },
        {
          "internalType": "uint256",
          "name": "l2Timestamp",
          "type": "uint256"
        },
        {
          "internalType": "uint256",
          "name": "value",
          "type": "uint256"
        },
        {
          "internalType": "bytes",
          "name": "data",
          "type": "bytes"
        }
      ],
      "name": "executeTransactionSimulation",
      "outputs": [],
      "stateMutability": "nonpayable",
      "type": "function"
    },
    {
      "inputs": [
        {
          "internalType": "contract IBridge",
          "name": "_bridge",
          "type": "address"
        }
      ],
      "name": "initialize",
      "outputs": [],
      "stateMutability": "nonpayable",
      "type": "function"
    },
    {
      "inputs": [
        {
          "internalType": "uint256",
          "name": "index",
          "type": "uint256"
        }
      ],
      "name": "isSpent",
      "outputs": [
        {
          "internalType": "bool",
          "name": "",
          "type": "bool"
        }
      ],
      "stateMutability": "view",
      "type": "function"
    },
    {
      "inputs": [],
      "name": "l2ToL1BatchNum",
      "outputs": [
        {
          "internalType": "uint256",
          "name": "",
          "type": "uint256"
        }
      ],
      "stateMutability": "pure",
      "type": "function"
    },
    {
      "inputs": [],
      "name": "l2ToL1Block",
      "outputs": [
        {
          "internalType": "uint256",
          "name": "",
          "type": "uint256"
        }
      ],
      "stateMutability": "view",
      "type": "function"
    },
    {
      "inputs": [],
      "name": "l2ToL1EthBlock",
      "outputs": [
        {
          "internalType": "uint256",
          "name": "",
          "type": "uint256"
        }
      ],
      "stateMutability": "view",
      "type": "function"
    },
    {
      "inputs": [],
      "name": "l2ToL1OutputId",
      "outputs": [
        {
          "internalType": "bytes32",
          "name": "",
          "type": "bytes32"
        }
      ],
      "stateMutability": "view",
      "type": "function"
    },
    {
      "inputs": [],
      "name": "l2ToL1Sender",
      "outputs": [
        {
          "internalType": "address",
          "name": "",
          "type": "address"
        }
      ],
      "stateMutability": "view",
      "type": "function"
    },
    {
      "inputs": [],
      "name": "l2ToL1Timestamp",
      "outputs": [
        {
          "internalType": "uint256",
          "name": "",
          "type": "uint256"
        }
      ],
      "stateMutability": "view",
      "type": "function"
    },
    {
      "inputs": [],
      "name": "postUpgradeInit",
      "outputs": [],
      "stateMutability": "nonpayable",
      "type": "function"
    },
    {
      "inputs": [],
      "name": "rollup",
      "outputs": [
        {
          "internalType": "address",
          "name": "",
          "type": "address"
        }
      ],
      "stateMutability": "view",
      "type": "function"
    },
    {
      "inputs": [
        {
          "internalType": "bytes32",
          "name": "",
          "type": "bytes32"
        }
      ],
      "name": "roots",
      "outputs": [
        {
          "internalType": "bytes32",
          "name": "",
          "type": "bytes32"
        }
      ],
      "stateMutability": "view",
      "type": "function"
    },
    {
      "inputs": [
        {
          "internalType": "uint256",
          "name": "",
          "type": "uint256"
        }
      ],
      "name": "spent",
      "outputs": [
        {
          "internalType": "bytes32",
          "name": "",
          "type": "bytes32"
        }
      ],
      "stateMutability": "view",
      "type": "function"
    },
    {
      "inputs": [],
      "name": "updateRollupAddress",
      "outputs": [],
      "stateMutability": "nonpayable",
      "type": "function"
    },
    {
      "inputs": [
        {
          "internalType": "bytes32",
          "name": "root",
          "type": "bytes32"
        },
        {
          "internalType": "bytes32",
          "name": "l2BlockHash",
          "type": "bytes32"
        }
      ],
      "name": "updateSendRoot",
      "outputs": [],
      "stateMutability": "nonpayable",
      "type": "function"
    }
  ],
  "bytecode": "0x60a06040523073ffffffffffffffffffffffffffffffffffffffff1660809073ffffffffffffffffffffffffffffffffffffffff1681525034801561004357600080fd5b50608051612cb7610066600039600081816109ce0152610f030152612cb76000f3fe608060405234801561001057600080fd5b506004361061012b5760003560e01c806395fcea78116100ad578063c4d66de811610071578063c4d66de81461030c578063c75184df14610328578063cb23bcb514610346578063d5b5cc2314610364578063e78cea92146103945761012b565b806395fcea78146102685780639f0c04bf14610272578063a04cee60146102a2578063ae6dead7146102be578063b0f30537146102ee5761012b565b80635a129efe116100f45780635a129efe146101d45780636ae71f121461020457806372f2a8c71461020e57806380648b021461022c5780638515bc6a1461024a5761012b565b80627436d31461013057806308635a9514610160578063119852711461017c578063288e5b101461019a57806346547790146101b6575b600080fd5b61014a60048036038101906101459190611e1c565b6103b2565b6040516101579190611e9a565b60405180910390f35b61017a60048036038101906101759190611fc4565b6103ee565b005b61018461046d565b60405161019191906120df565b60405180910390f35b6101b460048036038101906101af91906120fa565b610472565b005b6101be6104f4565b6040516101cb91906120df565b60405180910390f35b6101ee60048036038101906101e991906121d0565b61056b565b6040516101fb9190612218565b60405180910390f35b61020c610591565b005b6102166108aa565b6040516102239190611e9a565b60405180910390f35b6102346108f4565b6040516102419190612242565b60405180910390f35b610252610965565b60405161025f91906120df565b60405180910390f35b6102706109cc565b005b61028c6004803603810190610287919061225d565b610d31565b6040516102999190611e9a565b60405180910390f35b6102bc60048036038101906102b7919061231f565b610d76565b005b6102d860048036038101906102d3919061235f565b610e72565b6040516102e59190611e9a565b60405180910390f35b6102f6610e8a565b60405161030391906120df565b60405180910390f35b610326600480360381019061032191906123ca565b610f01565b005b610330611334565b60405161033d9190612422565b60405180910390f35b61034e611339565b60405161035b9190612242565b60405180910390f35b61037e600480360381019061037991906121d0565b61135d565b60405161038b9190611e9a565b60405180910390f35b61039c611375565b6040516103a9919061249c565b60405180910390f35b60006103e58484846040516020016103ca91906124d8565b6040516020818303038152906040528051906020012061139b565b90509392505050565b60006104008989898989898989610d31565b905061044e8c8c80806020026020016040519081016040528093929190818152602001838360200280828437600081840152601f19601f820116905080830192505050505050508b83611468565b61045f8a8a8a8a8a8a8a8a8a611604565b505050505050505050505050565b600090565b600073ffffffffffffffffffffffffffffffffffffffff163373ffffffffffffffffffffffffffffffffffffffff16146104d8576040517f0e13b69d00000000000000000000000000000000000000000000000000000000815260040160405180910390fd5b6104e9898989898989898989611604565b505050505050505050565b600080600460000160009054906101000a90046fffffffffffffffffffffffffffffffff1690506fffffffffffffffffffffffffffffffff8016816fffffffffffffffffffffffffffffffff161415610551576000915050610568565b806fffffffffffffffffffffffffffffffff169150505b90565b600080600061057984611abe565b92509250506105888282611b0f565b92505050919050565b60008054906101000a900473ffffffffffffffffffffffffffffffffffffffff1673ffffffffffffffffffffffffffffffffffffffff16638da5cb5b6040518163ffffffff1660e01b815260040160206040518083038186803b1580156105f757600080fd5b505afa15801561060b573d6000803e3d6000fd5b505050506040513d601f19601f8201168201806040525081019061062f9190612508565b73ffffffffffffffffffffffffffffffffffffffff163373ffffffffffffffffffffffffffffffffffffffff161461073d573360008054906101000a900473ffffffffffffffffffffffffffffffffffffffff1673ffffffffffffffffffffffffffffffffffffffff16638da5cb5b6040518163ffffffff1660e01b815260040160206040518083038186803b1580156106c857600080fd5b505afa1580156106dc573d6000803e3d6000fd5b505050506040513d601f19601f820116820180604052508101906107009190612508565b6040517f23295f0e000000000000000000000000000000000000000000000000000000008152600401610734929190612535565b60405180910390fd5b6000600160009054906101000a900473ffffffffffffffffffffffffffffffffffffffff1673ffffffffffffffffffffffffffffffffffffffff1663cb23bcb56040518163ffffffff1660e01b815260040160206040518083038186803b1580156107a757600080fd5b505afa1580156107bb573d6000803e3d6000fd5b505050506040513d601f19601f820116820180604052508101906107df919061259c565b90508073ffffffffffffffffffffffffffffffffffffffff1660008054906101000a900473ffffffffffffffffffffffffffffffffffffffff1673ffffffffffffffffffffffffffffffffffffffff161415610867576040517fd054909f00000000000000000000000000000000000000000000000000000000815260040160405180910390fd5b806000806101000a81548173ffffffffffffffffffffffffffffffffffffffff021916908373ffffffffffffffffffffffffffffffffffffffff16021790555050565b60008060046001015490507fffffffffffffffffffffffffffffffffffffffffffffffffffffffffffffffff60001b8114156108ec576000801b9150506108f1565b809150505b90565b600080600460020160009054906101000a900473ffffffffffffffffffffffffffffffffffffffff16905073ffffffffffffffffffffffffffffffffffffffff80168173ffffffffffffffffffffffffffffffffffffffff16141561095d576000915050610962565b809150505b90565b600080600460020160149054906101000a90046bffffffffffffffffffffffff1690506bffffffffffffffffffffffff8016816bffffffffffffffffffffffff1614156109b65760009150506109c9565b806bffffffffffffffffffffffff169150505b90565b7f000000000000000000000000000000000000000000000000000000000000000073ffffffffffffffffffffffffffffffffffffffff163073ffffffffffffffffffffffffffffffffffffffff161415610a5b576040517f08c379a0000000000000000000000000000000000000000000000000000000008152600401610a529061264c565b60405180910390fd5b60007fb53127684a568b3173ae13b9f8a6016e243e63b6e8ee1178d6a717850b5d610360001b90506000815490508073ffffffffffffffffffffffffffffffffffffffff163373ffffffffffffffffffffffffffffffffffffffff1614610afb5733816040517f23295f0e000000000000000000000000000000000000000000000000000000008152600401610af2929190612535565b60405180910390fd5b6fffffffffffffffffffffffffffffffff8016600460000160009054906101000a90046fffffffffffffffffffffffffffffffff166fffffffffffffffffffffffffffffffff1614610b79576040517fd0afb66100000000000000000000000000000000000000000000000000000000815260040160405180910390fd5b6040518060c001604052806fffffffffffffffffffffffffffffffff801681526020016fffffffffffffffffffffffffffffffff801681526020017fffffffffffffffffffffffffffffffffffffffffffffffffffffffffffffffff60001b815260200173ffffffffffffffffffffffffffffffffffffffff801681526020016bffffffffffffffffffffffff80168152602001610c15611b29565b815250600460008201518160000160006101000a8154816fffffffffffffffffffffffffffffffff02191690836fffffffffffffffffffffffffffffffff16021790555060208201518160000160106101000a8154816fffffffffffffffffffffffffffffffff02191690836fffffffffffffffffffffffffffffffff1602179055506040820151816001015560608201518160020160006101000a81548173ffffffffffffffffffffffffffffffffffffffff021916908373ffffffffffffffffffffffffffffffffffffffff16021790555060808201518160020160146101000a8154816bffffffffffffffffffffffff02191690836bffffffffffffffffffffffff16021790555060a082015181600301559050505050565b60008888888888888888604051602001610d52989796959493929190612714565b60405160208183030381529060405280519060200120905098975050505050505050565b60008054906101000a900473ffffffffffffffffffffffffffffffffffffffff1673ffffffffffffffffffffffffffffffffffffffff163373ffffffffffffffffffffffffffffffffffffffff1614610e28573360008054906101000a900473ffffffffffffffffffffffffffffffffffffffff166040517f3933c6fc000000000000000000000000000000000000000000000000000000008152600401610e1f929190612535565b60405180910390fd5b80600360008481526020019081526020016000208190555080827fb4df3847300f076a369cd76d2314b470a1194d9e8a6bb97f1860aee88a5f674860405160405180910390a35050565b60036020528060005260406000206000915090505481565b600080600460000160109054906101000a90046fffffffffffffffffffffffffffffffff1690506fffffffffffffffffffffffffffffffff8016816fffffffffffffffffffffffffffffffff161415610ee7576000915050610efe565b806fffffffffffffffffffffffffffffffff169150505b90565b7f000000000000000000000000000000000000000000000000000000000000000073ffffffffffffffffffffffffffffffffffffffff163073ffffffffffffffffffffffffffffffffffffffff161415610f90576040517f08c379a0000000000000000000000000000000000000000000000000000000008152600401610f879061264c565b60405180910390fd5b600073ffffffffffffffffffffffffffffffffffffffff168173ffffffffffffffffffffffffffffffffffffffff161415610ff7576040517f1ad0f74300000000000000000000000000000000000000000000000000000000815260040160405180910390fd5b600073ffffffffffffffffffffffffffffffffffffffff16600160009054906101000a900473ffffffffffffffffffffffffffffffffffffffff1673ffffffffffffffffffffffffffffffffffffffff161461107f576040517fef34ca5c00000000000000000000000000000000000000000000000000000000815260040160405180910390fd5b6040518060c001604052806fffffffffffffffffffffffffffffffff801681526020016fffffffffffffffffffffffffffffffff801681526020017fffffffffffffffffffffffffffffffffffffffffffffffffffffffffffffffff60001b815260200173ffffffffffffffffffffffffffffffffffffffff801681526020016bffffffffffffffffffffffff8016815260200161111b611b29565b815250600460008201518160000160006101000a8154816fffffffffffffffffffffffffffffffff02191690836fffffffffffffffffffffffffffffffff16021790555060208201518160000160106101000a8154816fffffffffffffffffffffffffffffffff02191690836fffffffffffffffffffffffffffffffff1602179055506040820151816001015560608201518160020160006101000a81548173ffffffffffffffffffffffffffffffffffffffff021916908373ffffffffffffffffffffffffffffffffffffffff16021790555060808201518160020160146101000a8154816bffffffffffffffffffffffff02191690836bffffffffffffffffffffffff16021790555060a0820151816003015590505080600160006101000a81548173ffffffffffffffffffffffffffffffffffffffff021916908373ffffffffffffffffffffffffffffffffffffffff1602179055508073ffffffffffffffffffffffffffffffffffffffff1663cb23bcb56040518163ffffffff1660e01b815260040160206040518083038186803b1580156112ba57600080fd5b505afa1580156112ce573d6000803e3d6000fd5b505050506040513d601f19601f820116820180604052508101906112f2919061259c565b6000806101000a81548173ffffffffffffffffffffffffffffffffffffffff021916908373ffffffffffffffffffffffffffffffffffffffff16021790555050565b600281565b60008054906101000a900473ffffffffffffffffffffffffffffffffffffffff1681565b60026020528060005260406000206000915090505481565b600160009054906101000a900473ffffffffffffffffffffffffffffffffffffffff1681565b600080845190506101008111156113ed57806101006040517ffdac331e0000000000000000000000000000000000000000000000000000000081526004016113e49291906127ce565b60405180910390fd5b600083905060005b8281101561145b576000878281518110611412576114116127f7565b5b602002602001015190506000826001901b8816141561143f5782600052806020526040600020925061144f565b8060005282602052604060002092505b816001019150506113f5565b5080925050509392505050565b6101008351106114b05782516040517fab6a06830000000000000000000000000000000000000000000000000000000081526004016114a791906120df565b60405180910390fd5b825160026114be9190612988565b82106115105781835160026114d39190612988565b6040517f0b8a724b0000000000000000000000000000000000000000000000000000000081526004016115079291906129d3565b60405180910390fd5b600061151d8484846103b2565b90506000801b6003600083815260200190815260200160002054141561157a57806040517f8730d7c80000000000000000000000000000000000000000000000000000000081526004016115719190611e9a565b60405180910390fd5b600080600061158886611abe565b9250925092506115988282611b0f565b156115da57856040517f9715b8d30000000000000000000000000000000000000000000000000000000081526004016115d191906120df565b60405180910390fd5b816001901b60001b8117600260008581526020019081526020016000208190555050505050505050565b60008873ffffffffffffffffffffffffffffffffffffffff168873ffffffffffffffffffffffffffffffffffffffff167f20af7f3bbfe38132b8900ae295cd9c8d1914be7052d061a511f3f728dab189648c60405161166391906120df565b60405180910390a4600060046040518060c00160405290816000820160009054906101000a90046fffffffffffffffffffffffffffffffff166fffffffffffffffffffffffffffffffff166fffffffffffffffffffffffffffffffff1681526020016000820160109054906101000a90046fffffffffffffffffffffffffffffffff166fffffffffffffffffffffffffffffffff166fffffffffffffffffffffffffffffffff168152602001600182015481526020016002820160009054906101000a900473ffffffffffffffffffffffffffffffffffffffff1673ffffffffffffffffffffffffffffffffffffffff1673ffffffffffffffffffffffffffffffffffffffff1681526020016002820160149054906101000a90046bffffffffffffffffffffffff166bffffffffffffffffffffffff166bffffffffffffffffffffffff16815260200160038201548152505090506040518060c00160405280886fffffffffffffffffffffffffffffffff168152602001866fffffffffffffffffffffffffffffffff1681526020018b60001b81526020018a73ffffffffffffffffffffffffffffffffffffffff168152602001876bffffffffffffffffffffffff16815260200161183586611b2e565b815250600460008201518160000160006101000a8154816fffffffffffffffffffffffffffffffff02191690836fffffffffffffffffffffffffffffffff16021790555060208201518160000160106101000a8154816fffffffffffffffffffffffffffffffff02191690836fffffffffffffffffffffffffffffffff1602179055506040820151816001015560608201518160020160006101000a81548173ffffffffffffffffffffffffffffffffffffffff021916908373ffffffffffffffffffffffffffffffffffffffff16021790555060808201518160020160146101000a8154816bffffffffffffffffffffffff02191690836bffffffffffffffffffffffff16021790555060a0820151816003015590505061199c888585858080601f016020809104026020016040519081016040528093929190818152602001838380828437600081840152601f19601f82011690508083019250505050505050611b35565b80600460008201518160000160006101000a8154816fffffffffffffffffffffffffffffffff02191690836fffffffffffffffffffffffffffffffff16021790555060208201518160000160106101000a8154816fffffffffffffffffffffffffffffffff02191690836fffffffffffffffffffffffffffffffff1602179055506040820151816001015560608201518160020160006101000a81548173ffffffffffffffffffffffffffffffffffffffff021916908373ffffffffffffffffffffffffffffffffffffffff16021790555060808201518160020160146101000a8154816bffffffffffffffffffffffff02191690836bffffffffffffffffffffffff16021790555060a0820151816003015590505050505050505050505050565b60008060008060ff85611ad19190612a2b565b9050600060ff86611ae29190612a5c565b90506000600260008481526020019081526020016000205490508282829550955095505050509193909250565b60008060001b600160001b8484901c161415905092915050565b600090565b6000919050565b600080600160009054906101000a900473ffffffffffffffffffffffffffffffffffffffff1673ffffffffffffffffffffffffffffffffffffffff16639e5d4c498686866040518463ffffffff1660e01b8152600401611b9793929190612b15565b600060405180830381600087803b158015611bb157600080fd5b505af1158015611bc5573d6000803e3d6000fd5b505050506040513d6000823e3d601f19601f82011682018060405250810190611bee9190612c25565b9150915081611c3c57600081511115611c0a5780518082602001fd5b6040517f376fb55a00000000000000000000000000000000000000000000000000000000815260040160405180910390fd5b5050505050565b6000604051905090565b600080fd5b600080fd5b600080fd5b6000601f19601f8301169050919050565b7f4e487b7100000000000000000000000000000000000000000000000000000000600052604160045260246000fd5b611ca582611c5c565b810181811067ffffffffffffffff82111715611cc457611cc3611c6d565b5b80604052505050565b6000611cd7611c43565b9050611ce38282611c9c565b919050565b600067ffffffffffffffff821115611d0357611d02611c6d565b5b602082029050602081019050919050565b600080fd5b6000819050919050565b611d2c81611d19565b8114611d3757600080fd5b50565b600081359050611d4981611d23565b92915050565b6000611d62611d5d84611ce8565b611ccd565b90508083825260208201905060208402830185811115611d8557611d84611d14565b5b835b81811015611dae5780611d9a8882611d3a565b845260208401935050602081019050611d87565b5050509392505050565b600082601f830112611dcd57611dcc611c57565b5b8135611ddd848260208601611d4f565b91505092915050565b6000819050919050565b611df981611de6565b8114611e0457600080fd5b50565b600081359050611e1681611df0565b92915050565b600080600060608486031215611e3557611e34611c4d565b5b600084013567ffffffffffffffff811115611e5357611e52611c52565b5b611e5f86828701611db8565b9350506020611e7086828701611e07565b9250506040611e8186828701611d3a565b9150509250925092565b611e9481611d19565b82525050565b6000602082019050611eaf6000830184611e8b565b92915050565b600080fd5b60008083601f840112611ed057611ecf611c57565b5b8235905067ffffffffffffffff811115611eed57611eec611eb5565b5b602083019150836020820283011115611f0957611f08611d14565b5b9250929050565b600073ffffffffffffffffffffffffffffffffffffffff82169050919050565b6000611f3b82611f10565b9050919050565b611f4b81611f30565b8114611f5657600080fd5b50565b600081359050611f6881611f42565b92915050565b60008083601f840112611f8457611f83611c57565b5b8235905067ffffffffffffffff811115611fa157611fa0611eb5565b5b602083019150836001820283011115611fbd57611fbc611d14565b5b9250929050565b60008060008060008060008060008060006101208c8e031215611fea57611fe9611c4d565b5b60008c013567ffffffffffffffff81111561200857612007611c52565b5b6120148e828f01611eba565b9b509b505060206120278e828f01611e07565b99505060406120388e828f01611f59565b98505060606120498e828f01611f59565b975050608061205a8e828f01611e07565b96505060a061206b8e828f01611e07565b95505060c061207c8e828f01611e07565b94505060e061208d8e828f01611e07565b9350506101008c013567ffffffffffffffff8111156120af576120ae611c52565b5b6120bb8e828f01611f6e565b92509250509295989b509295989b9093969950565b6120d981611de6565b82525050565b60006020820190506120f460008301846120d0565b92915050565b60008060008060008060008060006101008a8c03121561211d5761211c611c4d565b5b600061212b8c828d01611e07565b995050602061213c8c828d01611f59565b985050604061214d8c828d01611f59565b975050606061215e8c828d01611e07565b965050608061216f8c828d01611e07565b95505060a06121808c828d01611e07565b94505060c06121918c828d01611e07565b93505060e08a013567ffffffffffffffff8111156121b2576121b1611c52565b5b6121be8c828d01611f6e565b92509250509295985092959850929598565b6000602082840312156121e6576121e5611c4d565b5b60006121f484828501611e07565b91505092915050565b60008115159050919050565b612212816121fd565b82525050565b600060208201905061222d6000830184612209565b92915050565b61223c81611f30565b82525050565b60006020820190506122576000830184612233565b92915050565b60008060008060008060008060e0898b03121561227d5761227c611c4d565b5b600061228b8b828c01611f59565b985050602061229c8b828c01611f59565b97505060406122ad8b828c01611e07565b96505060606122be8b828c01611e07565b95505060806122cf8b828c01611e07565b94505060a06122e08b828c01611e07565b93505060c089013567ffffffffffffffff81111561230157612300611c52565b5b61230d8b828c01611f6e565b92509250509295985092959890939650565b6000806040838503121561233657612335611c4d565b5b600061234485828601611d3a565b925050602061235585828601611d3a565b9150509250929050565b60006020828403121561237557612374611c4d565b5b600061238384828501611d3a565b91505092915050565b600061239782611f30565b9050919050565b6123a78161238c565b81146123b257600080fd5b50565b6000813590506123c48161239e565b92915050565b6000602082840312156123e0576123df611c4d565b5b60006123ee848285016123b5565b91505092915050565b60006fffffffffffffffffffffffffffffffff82169050919050565b61241c816123f7565b82525050565b60006020820190506124376000830184612413565b92915050565b6000819050919050565b600061246261245d61245884611f10565b61243d565b611f10565b9050919050565b600061247482612447565b9050919050565b600061248682612469565b9050919050565b6124968161247b565b82525050565b60006020820190506124b1600083018461248d565b92915050565b6000819050919050565b6124d26124cd82611d19565b6124b7565b82525050565b60006124e482846124c1565b60208201915081905092915050565b60008151905061250281611f42565b92915050565b60006020828403121561251e5761251d611c4d565b5b600061252c848285016124f3565b91505092915050565b600060408201905061254a6000830185612233565b6125576020830184612233565b9392505050565b600061256982611f30565b9050919050565b6125798161255e565b811461258457600080fd5b50565b60008151905061259681612570565b92915050565b6000602082840312156125b2576125b1611c4d565b5b60006125c084828501612587565b91505092915050565b600082825260208201905092915050565b7f46756e6374696f6e206d7573742062652063616c6c6564207468726f7567682060008201527f64656c656761746563616c6c0000000000000000000000000000000000000000602082015250565b6000612636602c836125c9565b9150612641826125da565b604082019050919050565b6000602082019050818103600083015261266581612629565b9050919050565b60008160601b9050919050565b60006126848261266c565b9050919050565b600061269682612679565b9050919050565b6126ae6126a982611f30565b61268b565b82525050565b6000819050919050565b6126cf6126ca82611de6565b6126b4565b82525050565b600081905092915050565b82818337600083830152505050565b60006126fb83856126d5565b93506127088385846126e0565b82840190509392505050565b6000612720828b61269d565b601482019150612730828a61269d565b60148201915061274082896126be565b60208201915061275082886126be565b60208201915061276082876126be565b60208201915061277082866126be565b6020820191506127818284866126ef565b91508190509998505050505050505050565b6000819050919050565b60006127b86127b36127ae84612793565b61243d565b611de6565b9050919050565b6127c88161279d565b82525050565b60006040820190506127e360008301856120d0565b6127f060208301846127bf565b9392505050565b7f4e487b7100000000000000000000000000000000000000000000000000000000600052603260045260246000fd5b7f4e487b7100000000000000000000000000000000000000000000000000000000600052601160045260246000fd5b60008160011c9050919050565b6000808291508390505b60018511156128ac5780860481111561288857612887612826565b5b60018516156128975780820291505b80810290506128a585612855565b945061286c565b94509492505050565b6000826128c55760019050612981565b816128d35760009050612981565b81600181146128e957600281146128f357612922565b6001915050612981565b60ff84111561290557612904612826565b5b8360020a91508482111561291c5761291b612826565b5b50612981565b5060208310610133831016604e8410600b84101617156129575782820a90508381111561295257612951612826565b5b612981565b6129648484846001612862565b9250905081840481111561297b5761297a612826565b5b81810290505b9392505050565b600061299382611de6565b915061299e83611de6565b92506129cb7fffffffffffffffffffffffffffffffffffffffffffffffffffffffffffffffff84846128b5565b905092915050565b60006040820190506129e860008301856120d0565b6129f560208301846120d0565b9392505050565b7f4e487b7100000000000000000000000000000000000000000000000000000000600052601260045260246000fd5b6000612a3682611de6565b9150612a4183611de6565b925082612a5157612a506129fc565b5b828204905092915050565b6000612a6782611de6565b9150612a7283611de6565b925082612a8257612a816129fc565b5b828206905092915050565b600081519050919050565b600082825260208201905092915050565b60005b83811015612ac7578082015181840152602081019050612aac565b83811115612ad6576000848401525b50505050565b6000612ae782612a8d565b612af18185612a98565b9350612b01818560208601612aa9565b612b0a81611c5c565b840191505092915050565b6000606082019050612b2a6000830186612233565b612b3760208301856120d0565b8181036040830152612b498184612adc565b9050949350505050565b612b5c816121fd565b8114612b6757600080fd5b50565b600081519050612b7981612b53565b92915050565b600080fd5b600067ffffffffffffffff821115612b9f57612b9e611c6d565b5b612ba882611c5c565b9050602081019050919050565b6000612bc8612bc384612b84565b611ccd565b905082815260208101848484011115612be457612be3612b7f565b5b612bef848285612aa9565b509392505050565b600082601f830112612c0c57612c0b611c57565b5b8151612c1c848260208601612bb5565b91505092915050565b60008060408385031215612c3c57612c3b611c4d565b5b6000612c4a85828601612b6a565b925050602083015167ffffffffffffffff811115612c6b57612c6a611c52565b5b612c7785828601612bf7565b915050925092905056fea26469706673582212203114c464e5bbc0c1611e0911db377045c690671f7db099136c1e6e1bbf362d2564736f6c63430008090033",
  "linkReferences": {},
  "deployedLinkReferences": {}
}