{
  "_format": "hh-sol-artifact-1",
  "contractName": "GreeterL2",
  "sourceName": "contracts/arbitrum/GreeterL2.sol",
  "abi": [
    {
      "inputs": [
        {
          "internalType": "string",
          "name": "_greeting",
          "type": "string"
        },
        {
          "internalType": "address",
          "name": "_l1Target",
          "type": "address"
        }
      ],
      "stateMutability": "nonpayable",
      "type": "constructor"
    },
    {
      "anonymous": false,
      "inputs": [
        {
          "indexed": true,
          "internalType": "uint256",
          "name": "withdrawalId",
          "type": "uint256"
        }
      ],
      "name": "L2ToL1TxCreated",
      "type": "event"
    },
    {
      "inputs": [],
      "name": "greet",
      "outputs": [
        {
          "internalType": "string",
          "name": "",
          "type": "string"
        }
      ],
      "stateMutability": "view",
      "type": "function"
    },
    {
      "inputs": [],
      "name": "l1Target",
      "outputs": [
        {
          "internalType": "address",
          "name": "",
          "type": "address"
        }
      ],
      "stateMutability": "view",
      "type": "function"
    },
    {
      "inputs": [
        {
          "internalType": "string",
          "name": "_greeting",
          "type": "string"
        }
      ],
      "name": "setGreeting",
      "outputs": [],
      "stateMutability": "nonpayable",
      "type": "function"
    },
    {
      "inputs": [
        {
          "internalType": "string",
          "name": "_greeting",
          "type": "string"
        }
      ],
      "name": "setGreetingInL1",
      "outputs": [
        {
          "internalType": "uint256",
          "name": "",
          "type": "uint256"
        }
      ],
      "stateMutability": "nonpayable",
      "type": "function"
    },
    {
      "inputs": [
        {
          "internalType": "address",
          "name": "_l1Target",
          "type": "address"
        }
      ],
      "name": "updateL1Target",
      "outputs": [],
      "stateMutability": "nonpayable",
      "type": "function"
    }
  ],
  "bytecode": "0x60806040523480156200001157600080fd5b5060405162000e2238038062000e2283398181016040528101906200003791906200034d565b818060009080519060200190620000509291906200009b565b505080600160006101000a81548173ffffffffffffffffffffffffffffffffffffffff021916908373ffffffffffffffffffffffffffffffffffffffff160217905550505062000418565b828054620000a990620003e2565b90600052602060002090601f016020900481019282620000cd576000855562000119565b82601f10620000e857805160ff191683800117855562000119565b8280016001018555821562000119579182015b8281111562000118578251825591602001919060010190620000fb565b5b5090506200012891906200012c565b5090565b5b80821115620001475760008160009055506001016200012d565b5090565b6000604051905090565b600080fd5b600080fd5b600080fd5b600080fd5b6000601f19601f8301169050919050565b7f4e487b7100000000000000000000000000000000000000000000000000000000600052604160045260246000fd5b620001b48262000169565b810181811067ffffffffffffffff82111715620001d657620001d56200017a565b5b80604052505050565b6000620001eb6200014b565b9050620001f98282620001a9565b919050565b600067ffffffffffffffff8211156200021c576200021b6200017a565b5b620002278262000169565b9050602081019050919050565b60005b838110156200025457808201518184015260208101905062000237565b8381111562000264576000848401525b50505050565b6000620002816200027b84620001fe565b620001df565b905082815260208101848484011115620002a0576200029f62000164565b5b620002ad84828562000234565b509392505050565b600082601f830112620002cd57620002cc6200015f565b5b8151620002df8482602086016200026a565b91505092915050565b600073ffffffffffffffffffffffffffffffffffffffff82169050919050565b60006200031582620002e8565b9050919050565b620003278162000308565b81146200033357600080fd5b50565b60008151905062000347816200031c565b92915050565b6000806040838503121562000367576200036662000155565b5b600083015167ffffffffffffffff8111156200038857620003876200015a565b5b6200039685828601620002b5565b9250506020620003a98582860162000336565b9150509250929050565b7f4e487b7100000000000000000000000000000000000000000000000000000000600052602260045260246000fd5b60006002820490506001821680620003fb57607f821691505b60208210811415620004125762000411620003b3565b5b50919050565b6109fa80620004286000396000f3fe608060405234801561001057600080fd5b50600436106100575760003560e01c80635325e4a61461005c578063a41368621461007a578063bf225ed614610096578063cfae3217146100c6578063f3c61c2b146100e4575b600080fd5b610064610100565b6040516100719190610524565b60405180910390f35b610094600480360381019061008f9190610699565b610126565b005b6100b060048036038101906100ab9190610699565b6101ca565b6040516100bd91906106fb565b60405180910390f35b6100ce610330565b6040516100db919061079e565b60405180910390f35b6100fe60048036038101906100f991906107ec565b6103c2565b005b600160009054906101000a900473ffffffffffffffffffffffffffffffffffffffff1681565b610151600160009054906101000a900473ffffffffffffffffffffffffffffffffffffffff16610406565b73ffffffffffffffffffffffffffffffffffffffff163373ffffffffffffffffffffffffffffffffffffffff16146101be576040517f08c379a00000000000000000000000000000000000000000000000000000000081526004016101b590610865565b60405180910390fd5b6101c781610426565b50565b60008063a413686260e01b836040516024016101e6919061079e565b604051602081830303815290604052907bffffffffffffffffffffffffffffffffffffffffffffffffffffffff19166020820180517bffffffffffffffffffffffffffffffffffffffffffffffffffffffff838183161783525050505090506000606473ffffffffffffffffffffffffffffffffffffffff1663928c169a600160009054906101000a900473ffffffffffffffffffffffffffffffffffffffff16846040518363ffffffff1660e01b81526004016102a59291906108da565b602060405180830381600087803b1580156102bf57600080fd5b505af11580156102d3573d6000803e3d6000fd5b505050506040513d601f19601f820116820180604052508101906102f79190610936565b9050807facd96f3817031b95eab52de9132d4a9dd13dac3d9dfcfe950ca9283c89b851a560405160405180910390a28092505050919050565b60606000805461033f90610992565b80601f016020809104026020016040519081016040528092919081815260200182805461036b90610992565b80156103b85780601f1061038d576101008083540402835291602001916103b8565b820191906000526020600020905b81548152906001019060200180831161039b57829003601f168201915b5050505050905090565b80600160006101000a81548173ffffffffffffffffffffffffffffffffffffffff021916908373ffffffffffffffffffffffffffffffffffffffff16021790555050565b600073111100000000000000000000000000000000111182019050919050565b806000908051906020019061043c929190610440565b5050565b82805461044c90610992565b90600052602060002090601f01602090048101928261046e57600085556104b5565b82601f1061048757805160ff19168380011785556104b5565b828001600101855582156104b5579182015b828111156104b4578251825591602001919060010190610499565b5b5090506104c291906104c6565b5090565b5b808211156104df5760008160009055506001016104c7565b5090565b600073ffffffffffffffffffffffffffffffffffffffff82169050919050565b600061050e826104e3565b9050919050565b61051e81610503565b82525050565b60006020820190506105396000830184610515565b92915050565b6000604051905090565b600080fd5b600080fd5b600080fd5b600080fd5b6000601f19601f8301169050919050565b7f4e487b7100000000000000000000000000000000000000000000000000000000600052604160045260246000fd5b6105a68261055d565b810181811067ffffffffffffffff821117156105c5576105c461056e565b5b80604052505050565b60006105d861053f565b90506105e4828261059d565b919050565b600067ffffffffffffffff8211156106045761060361056e565b5b61060d8261055d565b9050602081019050919050565b82818337600083830152505050565b600061063c610637846105e9565b6105ce565b90508281526020810184848401111561065857610657610558565b5b61066384828561061a565b509392505050565b600082601f8301126106805761067f610553565b5b8135610690848260208601610629565b91505092915050565b6000602082840312156106af576106ae610549565b5b600082013567ffffffffffffffff8111156106cd576106cc61054e565b5b6106d98482850161066b565b91505092915050565b6000819050919050565b6106f5816106e2565b82525050565b600060208201905061071060008301846106ec565b92915050565b600081519050919050565b600082825260208201905092915050565b60005b83811015610750578082015181840152602081019050610735565b8381111561075f576000848401525b50505050565b600061077082610716565b61077a8185610721565b935061078a818560208601610732565b6107938161055d565b840191505092915050565b600060208201905081810360008301526107b88184610765565b905092915050565b6107c981610503565b81146107d457600080fd5b50565b6000813590506107e6816107c0565b92915050565b60006020828403121561080257610801610549565b5b6000610810848285016107d7565b91505092915050565b7f4772656574696e67206f6e6c792075706461746561626c65206279204c310000600082015250565b600061084f601e83610721565b915061085a82610819565b602082019050919050565b6000602082019050818103600083015261087e81610842565b9050919050565b600081519050919050565b600082825260208201905092915050565b60006108ac82610885565b6108b68185610890565b93506108c6818560208601610732565b6108cf8161055d565b840191505092915050565b60006040820190506108ef6000830185610515565b818103602083015261090181846108a1565b90509392505050565b610913816106e2565b811461091e57600080fd5b50565b6000815190506109308161090a565b92915050565b60006020828403121561094c5761094b610549565b5b600061095a84828501610921565b91505092915050565b7f4e487b7100000000000000000000000000000000000000000000000000000000600052602260045260246000fd5b600060028204905060018216806109aa57607f821691505b602082108114156109be576109bd610963565b5b5091905056fea2646970667358221220dbd96afebeb1b376371a004d223ce77564fb4a99d50b83e6c69d136c521169d764736f6c63430008090033",
  "linkReferences": {},
  "deployedLinkReferences": {}
}