{
  "address": "0xEc5a31320a945477E4949775340f1A4e3473D0c1",
  "abi": [
    {
      "inputs": [],
      "stateMutability": "nonpayable",
      "type": "constructor"
    },
    {
      "inputs": [],
      "name": "getThePrice",
      "outputs": [
        {
          "internalType": "int256",
          "name": "",
          "type": "int256"
        }
      ],
      "stateMutability": "view",
      "type": "function"
    }
  ],
  "transactionHash": "0x1902d853b6b7adbc79c9b519d3edfbd7a52364b2225a54878761a701756dede3",
  "args": [],
  "numDeployments": 1,
  "solcInputHash": "59e9380075eb56e082ba874e81beabaf",
  "bytecode": "0x608060405234801561001057600080fd5b50600080546001600160a01b03191673694aa1769357215de4fac081bf1f309adc325306179055610168806100466000396000f3fe608060405234801561001057600080fd5b506004361061002b5760003560e01c80638c3c9a5514610030575b600080fd5b61003861004a565b60405190815260200160405180910390f35b6000805460408051633fabe5a360e21b8152905183926001600160a01b03169163feaf968c9160048083019260a09291908290030181865afa158015610094573d6000803e3d6000fd5b505050506040513d601f19601f820116820180604052508101906100b891906100e2565b509195945050505050565b805169ffffffffffffffffffff811681146100dd57600080fd5b919050565b600080600080600060a086880312156100fa57600080fd5b610103866100c3565b9450602086015193506040860151925060608601519150610126608087016100c3565b9050929550929590935056fea2646970667358221220abd9af81b6d36e4c8587a88bf88f26c62809aacf5716cdfd0b06a0f32764cc0564736f6c63430008130033",
  "devdoc": {
    "kind": "dev",
    "methods": {},
    "version": 1
  },
  "userdoc": {
    "kind": "user",
    "methods": {
      "getThePrice()": {
        "notice": "Returns the latest price"
      }
    },
    "version": 1
  },
  "storageLayout": {
    "storage": [
      {
        "astId": 2744,
        "contract": "contracts/PriceConsumer.sol:PriceConsumerV3",
        "label": "priceFeed",
        "offset": 0,
        "slot": "0",
        "type": "t_contract(AggregatorV3Interface)1317"
      }
    ],
    "types": {
      "t_contract(AggregatorV3Interface)1317": {
        "encoding": "inplace",
        "label": "contract AggregatorV3Interface",
        "numberOfBytes": "20"
      }
    }
  }
}