{
  "address": "0x2e3A4280B38FAF6fAe9CFbc4A747B147B8E51bB0",
  "abi": [
    {
      "inputs": [
        {
          "internalType": "string[]",
          "name": "candidateNames",
          "type": "string[]"
        }
      ],
      "stateMutability": "nonpayable",
      "type": "constructor"
    },
    {
      "inputs": [
        {
          "internalType": "uint256",
          "name": "",
          "type": "uint256"
        }
      ],
      "name": "candidates",
      "outputs": [
        {
          "internalType": "string",
          "name": "name",
          "type": "string"
        },
        {
          "internalType": "uint256",
          "name": "voteCount",
          "type": "uint256"
        }
      ],
      "stateMutability": "view",
      "type": "function"
    },
    {
      "inputs": [],
      "name": "getCandidates",
      "outputs": [
        {
          "components": [
            {
              "internalType": "string",
              "name": "name",
              "type": "string"
            },
            {
              "internalType": "uint256",
              "name": "voteCount",
              "type": "uint256"
            }
          ],
          "internalType": "struct Voting.Candidate[]",
          "name": "",
          "type": "tuple[]"
        }
      ],
      "stateMutability": "view",
      "type": "function"
    },
    {
      "inputs": [],
      "name": "owner",
      "outputs": [
        {
          "internalType": "address",
          "name": "",
          "type": "address"
        }
      ],
      "stateMutability": "view",
      "type": "function"
    },
    {
      "inputs": [],
      "name": "resetVotes",
      "outputs": [],
      "stateMutability": "nonpayable",
      "type": "function"
    },
    {
      "inputs": [
        {
          "internalType": "uint256",
          "name": "candidateIndex",
          "type": "uint256"
        }
      ],
      "name": "vote",
      "outputs": [],
      "stateMutability": "nonpayable",
      "type": "function"
    },
    {
      "inputs": [
        {
          "internalType": "uint256",
          "name": "",
          "type": "uint256"
        }
      ],
      "name": "voterList",
      "outputs": [
        {
          "internalType": "address",
          "name": "",
          "type": "address"
        }
      ],
      "stateMutability": "view",
      "type": "function"
    },
    {
      "inputs": [
        {
          "internalType": "address",
          "name": "",
          "type": "address"
        }
      ],
      "name": "voters",
      "outputs": [
        {
          "internalType": "bool",
          "name": "",
          "type": "bool"
        }
      ],
      "stateMutability": "view",
      "type": "function"
    }
  ],
  "transactionHash": "0x21ed09fc058fd4fac36d6ed6dfadc5f0a7d68e9883c96ab8f38d244e52531429",
  "args": [
    [
      "Alice",
      "Bob",
      "Charlie"
    ]
  ],
  "numDeployments": 2,
  "solcInputHash": "4fe4962d50604d43ccc42edd4db601d1",
  "bytecode": "0x60806040523480156200001157600080fd5b5060405162000b9a38038062000b9a833981016040819052620000349162000121565b600080546001600160a01b031916331781555b8151811015620000d0576002604051806040016040528084848151811062000073576200007362000265565b60209081029190910181015182526000918101829052835460018101855593825290208151919260020201908190620000ad90826200030a565b506020820151816001015550508080620000c790620003d6565b91505062000047565b5050620003fe565b634e487b7160e01b600052604160045260246000fd5b604051601f8201601f191681016001600160401b0381118282101715620001195762000119620000d8565b604052919050565b600060208083850312156200013557600080fd5b82516001600160401b03808211156200014d57600080fd5b8185019150601f86818401126200016357600080fd5b825182811115620001785762000178620000d8565b8060051b62000189868201620000ee565b918252848101860191868101908a841115620001a457600080fd5b87870192505b838310156200025757825186811115620001c45760008081fd5b8701603f81018c13620001d75760008081fd5b8881015187811115620001ee57620001ee620000d8565b62000201818801601f19168b01620000ee565b81815260408e81848601011115620002195760008081fd5b60005b8381101562000239578481018201518382018e01528c016200021c565b505060009181018b01919091528352509187019190870190620001aa565b9a9950505050505050505050565b634e487b7160e01b600052603260045260246000fd5b600181811c908216806200029057607f821691505b602082108103620002b157634e487b7160e01b600052602260045260246000fd5b50919050565b601f8211156200030557600081815260208120601f850160051c81016020861015620002e05750805b601f850160051c820191505b818110156200030157828155600101620002ec565b5050505b505050565b81516001600160401b03811115620003265762000326620000d8565b6200033e816200033784546200027b565b84620002b7565b602080601f8311600181146200037657600084156200035d5750858301515b600019600386901b1c1916600185901b17855562000301565b600085815260208120601f198616915b82811015620003a75788860151825594840194600190910190840162000386565b5085821015620003c65787850151600019600388901b60f8161c191681555b5050505050600190811b01905550565b600060018201620003f757634e487b7160e01b600052601160045260246000fd5b5060010190565b61078c806200040e6000396000f3fe608060405234801561001057600080fd5b506004361061007d5760003560e01c806350e2e8af1161005b57806350e2e8af146100d65780638da5cb5b14610101578063a3ec138d14610114578063b9830ff11461014757600080fd5b80630121b93f1461008257806306a49fce146100975780633477ee2e146100b5575b600080fd5b6100956100903660046105b8565b61014f565b005b61009f61027f565b6040516100ac9190610617565b60405180910390f35b6100c86100c33660046105b8565b61037a565b6040516100ac92919061068d565b6100e96100e43660046105b8565b610436565b6040516001600160a01b0390911681526020016100ac565b6000546100e9906001600160a01b031681565b6101376101223660046106af565b60016020526000908152604090205460ff1681565b60405190151581526020016100ac565b610095610460565b3360009081526001602052604090205460ff16156101a55760405162461bcd60e51b815260206004820152600e60248201526d20b63932b0b23c903b37ba32b21760911b60448201526064015b60405180910390fd5b60025481106101eb5760405162461bcd60e51b815260206004820152601260248201527124b73b30b634b21031b0b73234b230ba329760711b604482015260640161019c565b3360008181526001602081905260408220805460ff1916821790556003805491820181559091527fc2575a0e9e593c00f959f8c92f12db2869c3395a3b0502d05e2516446f71f85b0180546001600160a01b03191690911790556002805482908110610259576102596106df565b600091825260208220600160029092020101805491610277836106f5565b919050555050565b60606002805480602002602001604051908101604052809291908181526020016000905b8282101561037157838290600052602060002090600202016040518060400160405290816000820180546102d69061071c565b80601f01602080910402602001604051908101604052809291908181526020018280546103029061071c565b801561034f5780601f106103245761010080835404028352916020019161034f565b820191906000526020600020905b81548152906001019060200180831161033257829003601f168201915b50505050508152602001600182015481525050815260200190600101906102a3565b50505050905090565b6002818154811061038a57600080fd5b90600052602060002090600202016000915090508060000180546103ad9061071c565b80601f01602080910402602001604051908101604052809291908181526020018280546103d99061071c565b80156104265780601f106103fb57610100808354040283529160200191610426565b820191906000526020600020905b81548152906001019060200180831161040957829003601f168201915b5050505050908060010154905082565b6003818154811061044657600080fd5b6000918252602090912001546001600160a01b0316905081565b6000546001600160a01b031633146104ba5760405162461bcd60e51b815260206004820152601b60248201527f4f6e6c79206f776e65722063616e20726573657420766f7465732e0000000000604482015260640161019c565b60005b600254811015610502576000600282815481106104dc576104dc6106df565b6000918252602090912060016002909202010155806104fa816106f5565b9150506104bd565b5060005b60035481101561056f5760006001600060038481548110610529576105296106df565b6000918252602080832091909101546001600160a01b031683528201929092526040019020805460ff191691151591909117905580610567816106f5565b915050610506565b5061057c6003600061057e565b565b508054600082559060005260206000209081019061059c919061059f565b50565b5b808211156105b457600081556001016105a0565b5090565b6000602082840312156105ca57600080fd5b5035919050565b6000815180845260005b818110156105f7576020818501810151868301820152016105db565b506000602082860101526020601f19601f83011685010191505092915050565b60006020808301818452808551808352604092508286019150828160051b87010184880160005b8381101561067f57888303603f1901855281518051878552610662888601826105d1565b91890151948901949094529487019492509086019060010161063e565b509098975050505050505050565b6040815260006106a060408301856105d1565b90508260208301529392505050565b6000602082840312156106c157600080fd5b81356001600160a01b03811681146106d857600080fd5b9392505050565b634e487b7160e01b600052603260045260246000fd5b60006001820161071557634e487b7160e01b600052601160045260246000fd5b5060010190565b600181811c9082168061073057607f821691505b60208210810361075057634e487b7160e01b600052602260045260246000fd5b5091905056fea26469706673582212206915a6a8f06e644b5bc1b59cfd11c51cefd2e8c3c26b7fe22004e44628882f9c64736f6c63430008110033",
  "devdoc": {
    "kind": "dev",
    "methods": {},
    "version": 1
  },
  "userdoc": {
    "kind": "user",
    "methods": {},
    "version": 1
  },
  "storageLayout": {
    "storage": [
      {
        "astId": 8,
        "contract": "contracts/Voting.sol:Voting",
        "label": "owner",
        "offset": 0,
        "slot": "0",
        "type": "t_address"
      },
      {
        "astId": 12,
        "contract": "contracts/Voting.sol:Voting",
        "label": "voters",
        "offset": 0,
        "slot": "1",
        "type": "t_mapping(t_address,t_bool)"
      },
      {
        "astId": 16,
        "contract": "contracts/Voting.sol:Voting",
        "label": "candidates",
        "offset": 0,
        "slot": "2",
        "type": "t_array(t_struct(Candidate)6_storage)dyn_storage"
      },
      {
        "astId": 19,
        "contract": "contracts/Voting.sol:Voting",
        "label": "voterList",
        "offset": 0,
        "slot": "3",
        "type": "t_array(t_address)dyn_storage"
      }
    ],
    "types": {
      "t_address": {
        "encoding": "inplace",
        "label": "address",
        "numberOfBytes": "20"
      },
      "t_array(t_address)dyn_storage": {
        "base": "t_address",
        "encoding": "dynamic_array",
        "label": "address[]",
        "numberOfBytes": "32"
      },
      "t_array(t_struct(Candidate)6_storage)dyn_storage": {
        "base": "t_struct(Candidate)6_storage",
        "encoding": "dynamic_array",
        "label": "struct Voting.Candidate[]",
        "numberOfBytes": "32"
      },
      "t_bool": {
        "encoding": "inplace",
        "label": "bool",
        "numberOfBytes": "1"
      },
      "t_mapping(t_address,t_bool)": {
        "encoding": "mapping",
        "key": "t_address",
        "label": "mapping(address => bool)",
        "numberOfBytes": "32",
        "value": "t_bool"
      },
      "t_string_storage": {
        "encoding": "bytes",
        "label": "string",
        "numberOfBytes": "32"
      },
      "t_struct(Candidate)6_storage": {
        "encoding": "inplace",
        "label": "struct Voting.Candidate",
        "members": [
          {
            "astId": 3,
            "contract": "contracts/Voting.sol:Voting",
            "label": "name",
            "offset": 0,
            "slot": "0",
            "type": "t_string_storage"
          },
          {
            "astId": 5,
            "contract": "contracts/Voting.sol:Voting",
            "label": "voteCount",
            "offset": 0,
            "slot": "1",
            "type": "t_uint256"
          }
        ],
        "numberOfBytes": "64"
      },
      "t_uint256": {
        "encoding": "inplace",
        "label": "uint256",
        "numberOfBytes": "32"
      }
    }
  }
}