{
  "_format": "hh-sol-artifact-1",
  "contractName": "GreeterL1",
  "sourceName": "contracts/ethereum/GreeterL1.sol",
  "abi": [
    {
      "inputs": [
        {
          "internalType": "string",
          "name": "_greeting",
          "type": "string"
        },
        {
          "internalType": "address",
          "name": "_l2Target",
          "type": "address"
        },
        {
          "internalType": "address",
          "name": "_inbox",
          "type": "address"
        }
      ],
      "stateMutability": "nonpayable",
      "type": "constructor"
    },
    {
      "anonymous": false,
      "inputs": [
        {
          "indexed": true,
          "internalType": "uint256",
          "name": "ticketId",
          "type": "uint256"
        }
      ],
      "name": "RetryableTicketCreated",
      "type": "event"
    },
    {
      "inputs": [],
      "name": "greet",
      "outputs": [
        {
          "internalType": "string",
          "name": "",
          "type": "string"
        }
      ],
      "stateMutability": "view",
      "type": "function"
    },
    {
      "inputs": [],
      "name": "inbox",
      "outputs": [
        {
          "internalType": "contract IInbox",
          "name": "",
          "type": "address"
        }
      ],
      "stateMutability": "view",
      "type": "function"
    },
    {
      "inputs": [],
      "name": "l2Target",
      "outputs": [
        {
          "internalType": "address",
          "name": "",
          "type": "address"
        }
      ],
      "stateMutability": "view",
      "type": "function"
    },
    {
      "inputs": [
        {
          "internalType": "string",
          "name": "_greeting",
          "type": "string"
        }
      ],
      "name": "setGreeting",
      "outputs": [],
      "stateMutability": "nonpayable",
      "type": "function"
    },
    {
      "inputs": [
        {
          "internalType": "string",
          "name": "_greeting",
          "type": "string"
        },
        {
          "internalType": "uint256",
          "name": "maxSubmissionCost",
          "type": "uint256"
        },
        {
          "internalType": "uint256",
          "name": "maxGas",
          "type": "uint256"
        },
        {
          "internalType": "uint256",
          "name": "gasPriceBid",
          "type": "uint256"
        }
      ],
      "name": "setGreetingInL2",
      "outputs": [
        {
          "internalType": "uint256",
          "name": "",
          "type": "uint256"
        }
      ],
      "stateMutability": "payable",
      "type": "function"
    },
    {
      "inputs": [
        {
          "internalType": "address",
          "name": "_l2Target",
          "type": "address"
        }
      ],
      "name": "updateL2Target",
      "outputs": [],
      "stateMutability": "nonpayable",
      "type": "function"
    }
  ],
  "bytecode": "0x60806040523480156200001157600080fd5b50604051620013da380380620013da83398181016040528101906200003791906200038f565b82806000908051906020019062000050929190620000dd565b505081600160006101000a81548173ffffffffffffffffffffffffffffffffffffffff021916908373ffffffffffffffffffffffffffffffffffffffff16021790555080600260006101000a81548173ffffffffffffffffffffffffffffffffffffffff021916908373ffffffffffffffffffffffffffffffffffffffff1602179055505050506200046f565b828054620000eb9062000439565b90600052602060002090601f0160209004810192826200010f57600085556200015b565b82601f106200012a57805160ff19168380011785556200015b565b828001600101855582156200015b579182015b828111156200015a5782518255916020019190600101906200013d565b5b5090506200016a91906200016e565b5090565b5b80821115620001895760008160009055506001016200016f565b5090565b6000604051905090565b600080fd5b600080fd5b600080fd5b600080fd5b6000601f19601f8301169050919050565b7f4e487b7100000000000000000000000000000000000000000000000000000000600052604160045260246000fd5b620001f682620001ab565b810181811067ffffffffffffffff82111715620002185762000217620001bc565b5b80604052505050565b60006200022d6200018d565b90506200023b8282620001eb565b919050565b600067ffffffffffffffff8211156200025e576200025d620001bc565b5b6200026982620001ab565b9050602081019050919050565b60005b838110156200029657808201518184015260208101905062000279565b83811115620002a6576000848401525b50505050565b6000620002c3620002bd8462000240565b62000221565b905082815260208101848484011115620002e257620002e1620001a6565b5b620002ef84828562000276565b509392505050565b600082601f8301126200030f576200030e620001a1565b5b815162000321848260208601620002ac565b91505092915050565b600073ffffffffffffffffffffffffffffffffffffffff82169050919050565b600062000357826200032a565b9050919050565b62000369816200034a565b81146200037557600080fd5b50565b60008151905062000389816200035e565b92915050565b600080600060608486031215620003ab57620003aa62000197565b5b600084015167ffffffffffffffff811115620003cc57620003cb6200019c565b5b620003da86828701620002f7565b9350506020620003ed8682870162000378565b9250506040620004008682870162000378565b9150509250925092565b7f4e487b7100000000000000000000000000000000000000000000000000000000600052602260045260246000fd5b600060028204905060018216806200045257607f821691505b602082108114156200046957620004686200040a565b5b50919050565b610f5b806200047f6000396000f3fe6080604052600436106100555760003560e01c806318e953241461005a57806362a3f5b514610083578063a4136862146100b3578063c2b530d6146100dc578063cfae321714610107578063fb0e722b14610132575b600080fd5b34801561006657600080fd5b50610081600480360381019061007c91906107fb565b61015d565b005b61009d600480360381019061009891906109a4565b6101a1565b6040516100aa9190610a36565b60405180910390f35b3480156100bf57600080fd5b506100da60048036038101906100d59190610a51565b610339565b005b3480156100e857600080fd5b506100f16105ee565b6040516100fe9190610aa9565b60405180910390f35b34801561011357600080fd5b5061011c610614565b6040516101299190610b4c565b60405180910390f35b34801561013e57600080fd5b506101476106a6565b6040516101549190610bcd565b60405180910390f35b80600160006101000a81548173ffffffffffffffffffffffffffffffffffffffff021916908373ffffffffffffffffffffffffffffffffffffffff16021790555050565b60008063a413686260e01b866040516024016101bd9190610b4c565b604051602081830303815290604052907bffffffffffffffffffffffffffffffffffffffffffffffffffffffff19166020820180517bffffffffffffffffffffffffffffffffffffffffffffffffffffffff838183161783525050505090506000600260009054906101000a900473ffffffffffffffffffffffffffffffffffffffff1673ffffffffffffffffffffffffffffffffffffffff1663679b6ded34600160009054906101000a900473ffffffffffffffffffffffffffffffffffffffff1660008a33338c8c8b6040518a63ffffffff1660e01b81526004016102ab989796959493929190610c78565b6020604051808303818588803b1580156102c457600080fd5b505af11580156102d8573d6000803e3d6000fd5b50505050506040513d601f19601f820116820180604052508101906102fd9190610d12565b9050807fde92b5b7839f4a2c640f5e3bbb66d415458dadc57a487b0c7fa562ed7c9c896f60405160405180910390a28092505050949350505050565b6000600260009054906101000a900473ffffffffffffffffffffffffffffffffffffffff1673ffffffffffffffffffffffffffffffffffffffff1663e78cea926040518163ffffffff1660e01b815260040160206040518083038186803b1580156103a357600080fd5b505afa1580156103b7573d6000803e3d6000fd5b505050506040513d601f19601f820116820180604052508101906103db9190610d7d565b90508073ffffffffffffffffffffffffffffffffffffffff163373ffffffffffffffffffffffffffffffffffffffff161461044b576040517f08c379a000000000000000000000000000000000000000000000000000000000815260040161044290610df6565b60405180910390fd5b60008173ffffffffffffffffffffffffffffffffffffffff1663ab5d89436040518163ffffffff1660e01b815260040160206040518083038186803b15801561049357600080fd5b505afa1580156104a7573d6000803e3d6000fd5b505050506040513d601f19601f820116820180604052508101906104cb9190610e2b565b905060008173ffffffffffffffffffffffffffffffffffffffff166380648b026040518163ffffffff1660e01b815260040160206040518083038186803b15801561051557600080fd5b505afa158015610529573d6000803e3d6000fd5b505050506040513d601f19601f8201168201806040525081019061054d9190610e2b565b9050600160009054906101000a900473ffffffffffffffffffffffffffffffffffffffff1673ffffffffffffffffffffffffffffffffffffffff168173ffffffffffffffffffffffffffffffffffffffff16146105df576040517f08c379a00000000000000000000000000000000000000000000000000000000081526004016105d690610ea4565b60405180910390fd5b6105e8846106cc565b50505050565b600160009054906101000a900473ffffffffffffffffffffffffffffffffffffffff1681565b60606000805461062390610ef3565b80601f016020809104026020016040519081016040528092919081815260200182805461064f90610ef3565b801561069c5780601f106106715761010080835404028352916020019161069c565b820191906000526020600020905b81548152906001019060200180831161067f57829003601f168201915b5050505050905090565b600260009054906101000a900473ffffffffffffffffffffffffffffffffffffffff1681565b80600090805190602001906106e29291906106e6565b5050565b8280546106f290610ef3565b90600052602060002090601f016020900481019282610714576000855561075b565b82601f1061072d57805160ff191683800117855561075b565b8280016001018555821561075b579182015b8281111561075a57825182559160200191906001019061073f565b5b509050610768919061076c565b5090565b5b8082111561078557600081600090555060010161076d565b5090565b6000604051905090565b600080fd5b600080fd5b600073ffffffffffffffffffffffffffffffffffffffff82169050919050565b60006107c88261079d565b9050919050565b6107d8816107bd565b81146107e357600080fd5b50565b6000813590506107f5816107cf565b92915050565b60006020828403121561081157610810610793565b5b600061081f848285016107e6565b91505092915050565b600080fd5b600080fd5b6000601f19601f8301169050919050565b7f4e487b7100000000000000000000000000000000000000000000000000000000600052604160045260246000fd5b61087b82610832565b810181811067ffffffffffffffff8211171561089a57610899610843565b5b80604052505050565b60006108ad610789565b90506108b98282610872565b919050565b600067ffffffffffffffff8211156108d9576108d8610843565b5b6108e282610832565b9050602081019050919050565b82818337600083830152505050565b600061091161090c846108be565b6108a3565b90508281526020810184848401111561092d5761092c61082d565b5b6109388482856108ef565b509392505050565b600082601f83011261095557610954610828565b5b81356109658482602086016108fe565b91505092915050565b6000819050919050565b6109818161096e565b811461098c57600080fd5b50565b60008135905061099e81610978565b92915050565b600080600080608085870312156109be576109bd610793565b5b600085013567ffffffffffffffff8111156109dc576109db610798565b5b6109e887828801610940565b94505060206109f98782880161098f565b9350506040610a0a8782880161098f565b9250506060610a1b8782880161098f565b91505092959194509250565b610a308161096e565b82525050565b6000602082019050610a4b6000830184610a27565b92915050565b600060208284031215610a6757610a66610793565b5b600082013567ffffffffffffffff811115610a8557610a84610798565b5b610a9184828501610940565b91505092915050565b610aa3816107bd565b82525050565b6000602082019050610abe6000830184610a9a565b92915050565b600081519050919050565b600082825260208201905092915050565b60005b83811015610afe578082015181840152602081019050610ae3565b83811115610b0d576000848401525b50505050565b6000610b1e82610ac4565b610b288185610acf565b9350610b38818560208601610ae0565b610b4181610832565b840191505092915050565b60006020820190508181036000830152610b668184610b13565b905092915050565b6000819050919050565b6000610b93610b8e610b898461079d565b610b6e565b61079d565b9050919050565b6000610ba582610b78565b9050919050565b6000610bb782610b9a565b9050919050565b610bc781610bac565b82525050565b6000602082019050610be26000830184610bbe565b92915050565b6000819050919050565b6000610c0d610c08610c0384610be8565b610b6e565b61096e565b9050919050565b610c1d81610bf2565b82525050565b600081519050919050565b600082825260208201905092915050565b6000610c4a82610c23565b610c548185610c2e565b9350610c64818560208601610ae0565b610c6d81610832565b840191505092915050565b600061010082019050610c8e600083018b610a9a565b610c9b602083018a610c14565b610ca86040830189610a27565b610cb56060830188610a9a565b610cc26080830187610a9a565b610ccf60a0830186610a27565b610cdc60c0830185610a27565b81810360e0830152610cee8184610c3f565b90509998505050505050505050565b600081519050610d0c81610978565b92915050565b600060208284031215610d2857610d27610793565b5b6000610d3684828501610cfd565b91505092915050565b6000610d4a826107bd565b9050919050565b610d5a81610d3f565b8114610d6557600080fd5b50565b600081519050610d7781610d51565b92915050565b600060208284031215610d9357610d92610793565b5b6000610da184828501610d68565b91505092915050565b7f4e4f545f42524944474500000000000000000000000000000000000000000000600082015250565b6000610de0600a83610acf565b9150610deb82610daa565b602082019050919050565b60006020820190508181036000830152610e0f81610dd3565b9050919050565b600081519050610e25816107cf565b92915050565b600060208284031215610e4157610e40610793565b5b6000610e4f84828501610e16565b91505092915050565b7f4772656574696e67206f6e6c792075706461746561626c65206279204c320000600082015250565b6000610e8e601e83610acf565b9150610e9982610e58565b602082019050919050565b60006020820190508181036000830152610ebd81610e81565b9050919050565b7f4e487b7100000000000000000000000000000000000000000000000000000000600052602260045260246000fd5b60006002820490506001821680610f0b57607f821691505b60208210811415610f1f57610f1e610ec4565b5b5091905056fea2646970667358221220eafcff759e7957807d5e3f02802cbbf11b208588024f99ca68469187a166dc8f64736f6c63430008090033",
  "linkReferences": {},
  "deployedLinkReferences": {}
}