{
  "_format": "hh-sol-artifact-1",
  "contractName": "Inbox",
  "sourceName": "@arbitrum/nitro-contracts/src/bridge/Inbox.sol",
  "abi": [
    {
      "inputs": [
        {
          "internalType": "uint256",
          "name": "_maxDataSize",
          "type": "uint256"
        }
      ],
      "stateMutability": "nonpayable",
      "type": "constructor"
    },
    {
      "inputs": [
        {
          "internalType": "uint256",
          "name": "dataLength",
          "type": "uint256"
        },
        {
          "internalType": "uint256",
          "name": "maxDataLength",
          "type": "uint256"
        }
      ],
      "name": "DataTooLarge",
      "type": "error"
    },
    {
      "inputs": [],
      "name": "GasLimitTooLarge",
      "type": "error"
    },
    {
      "inputs": [
        {
          "internalType": "uint256",
          "name": "expected",
          "type": "uint256"
        },
        {
          "internalType": "uint256",
          "name": "actual",
          "type": "uint256"
        }
      ],
      "name": "InsufficientSubmissionCost",
      "type": "error"
    },
    {
      "inputs": [
        {
          "internalType": "uint256",
          "name": "expected",
          "type": "uint256"
        },
        {
          "internalType": "uint256",
          "name": "actual",
          "type": "uint256"
        }
      ],
      "name": "InsufficientValue",
      "type": "error"
    },
    {
      "inputs": [],
      "name": "L1Forked",
      "type": "error"
    },
    {
      "inputs": [
        {
          "internalType": "address",
          "name": "origin",
          "type": "address"
        }
      ],
      "name": "NotAllowedOrigin",
      "type": "error"
    },
    {
      "inputs": [],
      "name": "NotForked",
      "type": "error"
    },
    {
      "inputs": [],
      "name": "NotOrigin",
      "type": "error"
    },
    {
      "inputs": [
        {
          "internalType": "address",
          "name": "sender",
          "type": "address"
        },
        {
          "internalType": "address",
          "name": "owner",
          "type": "address"
        }
      ],
      "name": "NotOwner",
      "type": "error"
    },
    {
      "inputs": [
        {
          "internalType": "address",
          "name": "sender",
          "type": "address"
        },
        {
          "internalType": "address",
          "name": "rollup",
          "type": "address"
        },
        {
          "internalType": "address",
          "name": "owner",
          "type": "address"
        }
      ],
      "name": "NotRollupOrOwner",
      "type": "error"
    },
    {
      "inputs": [
        {
          "internalType": "address",
          "name": "from",
          "type": "address"
        },
        {
          "internalType": "address",
          "name": "to",
          "type": "address"
        },
        {
          "internalType": "uint256",
          "name": "l2CallValue",
          "type": "uint256"
        },
        {
          "internalType": "uint256",
          "name": "deposit",
          "type": "uint256"
        },
        {
          "internalType": "uint256",
          "name": "maxSubmissionCost",
          "type": "uint256"
        },
        {
          "internalType": "address",
          "name": "excessFeeRefundAddress",
          "type": "address"
        },
        {
          "internalType": "address",
          "name": "callValueRefundAddress",
          "type": "address"
        },
        {
          "internalType": "uint256",
          "name": "gasLimit",
          "type": "uint256"
        },
        {
          "internalType": "uint256",
          "name": "maxFeePerGas",
          "type": "uint256"
        },
        {
          "internalType": "bytes",
          "name": "data",
          "type": "bytes"
        }
      ],
      "name": "RetryableData",
      "type": "error"
    },
    {
      "anonymous": false,
      "inputs": [
        {
          "indexed": true,
          "internalType": "address",
          "name": "user",
          "type": "address"
        },
        {
          "indexed": false,
          "internalType": "bool",
          "name": "val",
          "type": "bool"
        }
      ],
      "name": "AllowListAddressSet",
      "type": "event"
    },
    {
      "anonymous": false,
      "inputs": [
        {
          "indexed": false,
          "internalType": "bool",
          "name": "isEnabled",
          "type": "bool"
        }
      ],
      "name": "AllowListEnabledUpdated",
      "type": "event"
    },
    {
      "anonymous": false,
      "inputs": [
        {
          "indexed": true,
          "internalType": "uint256",
          "name": "messageNum",
          "type": "uint256"
        },
        {
          "indexed": false,
          "internalType": "bytes",
          "name": "data",
          "type": "bytes"
        }
      ],
      "name": "InboxMessageDelivered",
      "type": "event"
    },
    {
      "anonymous": false,
      "inputs": [
        {
          "indexed": true,
          "internalType": "uint256",
          "name": "messageNum",
          "type": "uint256"
        }
      ],
      "name": "InboxMessageDeliveredFromOrigin",
      "type": "event"
    },
    {
      "anonymous": false,
      "inputs": [
        {
          "indexed": false,
          "internalType": "address",
          "name": "account",
          "type": "address"
        }
      ],
      "name": "Paused",
      "type": "event"
    },
    {
      "anonymous": false,
      "inputs": [
        {
          "indexed": false,
          "internalType": "address",
          "name": "account",
          "type": "address"
        }
      ],
      "name": "Unpaused",
      "type": "event"
    },
    {
      "inputs": [],
      "name": "allowListEnabled",
      "outputs": [
        {
          "internalType": "bool",
          "name": "",
          "type": "bool"
        }
      ],
      "stateMutability": "view",
      "type": "function"
    },
    {
      "inputs": [],
      "name": "bridge",
      "outputs": [
        {
          "internalType": "contract IBridge",
          "name": "",
          "type": "address"
        }
      ],
      "stateMutability": "view",
      "type": "function"
    },
    {
      "inputs": [
        {
          "internalType": "uint256",
          "name": "dataLength",
          "type": "uint256"
        },
        {
          "internalType": "uint256",
          "name": "baseFee",
          "type": "uint256"
        }
      ],
      "name": "calculateRetryableSubmissionFee",
      "outputs": [
        {
          "internalType": "uint256",
          "name": "",
          "type": "uint256"
        }
      ],
      "stateMutability": "view",
      "type": "function"
    },
    {
      "inputs": [
        {
          "internalType": "address",
          "name": "to",
          "type": "address"
        },
        {
          "internalType": "uint256",
          "name": "l2CallValue",
          "type": "uint256"
        },
        {
          "internalType": "uint256",
          "name": "maxSubmissionCost",
          "type": "uint256"
        },
        {
          "internalType": "address",
          "name": "excessFeeRefundAddress",
          "type": "address"
        },
        {
          "internalType": "address",
          "name": "callValueRefundAddress",
          "type": "address"
        },
        {
          "internalType": "uint256",
          "name": "gasLimit",
          "type": "uint256"
        },
        {
          "internalType": "uint256",
          "name": "maxFeePerGas",
          "type": "uint256"
        },
        {
          "internalType": "bytes",
          "name": "data",
          "type": "bytes"
        }
      ],
      "name": "createRetryableTicket",
      "outputs": [
        {
          "internalType": "uint256",
          "name": "",
          "type": "uint256"
        }
      ],
      "stateMutability": "payable",
      "type": "function"
    },
    {
      "inputs": [
        {
          "internalType": "address",
          "name": "to",
          "type": "address"
        },
        {
          "internalType": "uint256",
          "name": "l2CallValue",
          "type": "uint256"
        },
        {
          "internalType": "uint256",
          "name": "maxSubmissionCost",
          "type": "uint256"
        },
        {
          "internalType": "address",
          "name": "excessFeeRefundAddress",
          "type": "address"
        },
        {
          "internalType": "address",
          "name": "callValueRefundAddress",
          "type": "address"
        },
        {
          "internalType": "uint256",
          "name": "gasLimit",
          "type": "uint256"
        },
        {
          "internalType": "uint256",
          "name": "maxFeePerGas",
          "type": "uint256"
        },
        {
          "internalType": "bytes",
          "name": "data",
          "type": "bytes"
        }
      ],
      "name": "createRetryableTicketNoRefundAliasRewrite",
      "outputs": [
        {
          "internalType": "uint256",
          "name": "",
          "type": "uint256"
        }
      ],
      "stateMutability": "payable",
      "type": "function"
    },
    {
      "inputs": [
        {
          "internalType": "uint256",
          "name": "",
          "type": "uint256"
        }
      ],
      "name": "depositEth",
      "outputs": [
        {
          "internalType": "uint256",
          "name": "",
          "type": "uint256"
        }
      ],
      "stateMutability": "payable",
      "type": "function"
    },
    {
      "inputs": [],
      "name": "depositEth",
      "outputs": [
        {
          "internalType": "uint256",
          "name": "",
          "type": "uint256"
        }
      ],
      "stateMutability": "payable",
      "type": "function"
    },
    {
      "inputs": [],
      "name": "getProxyAdmin",
      "outputs": [
        {
          "internalType": "address",
          "name": "",
          "type": "address"
        }
      ],
      "stateMutability": "view",
      "type": "function"
    },
    {
      "inputs": [
        {
          "internalType": "contract IBridge",
          "name": "_bridge",
          "type": "address"
        },
        {
          "internalType": "contract ISequencerInbox",
          "name": "_sequencerInbox",
          "type": "address"
        }
      ],
      "name": "initialize",
      "outputs": [],
      "stateMutability": "nonpayable",
      "type": "function"
    },
    {
      "inputs": [
        {
          "internalType": "address",
          "name": "",
          "type": "address"
        }
      ],
      "name": "isAllowed",
      "outputs": [
        {
          "internalType": "bool",
          "name": "",
          "type": "bool"
        }
      ],
      "stateMutability": "view",
      "type": "function"
    },
    {
      "inputs": [],
      "name": "maxDataSize",
      "outputs": [
        {
          "internalType": "uint256",
          "name": "",
          "type": "uint256"
        }
      ],
      "stateMutability": "view",
      "type": "function"
    },
    {
      "inputs": [],
      "name": "pause",
      "outputs": [],
      "stateMutability": "nonpayable",
      "type": "function"
    },
    {
      "inputs": [],
      "name": "paused",
      "outputs": [
        {
          "internalType": "bool",
          "name": "",
          "type": "bool"
        }
      ],
      "stateMutability": "view",
      "type": "function"
    },
    {
      "inputs": [
        {
          "internalType": "contract IBridge",
          "name": "",
          "type": "address"
        }
      ],
      "name": "postUpgradeInit",
      "outputs": [],
      "stateMutability": "nonpayable",
      "type": "function"
    },
    {
      "inputs": [
        {
          "internalType": "uint256",
          "name": "gasLimit",
          "type": "uint256"
        },
        {
          "internalType": "uint256",
          "name": "maxFeePerGas",
          "type": "uint256"
        },
        {
          "internalType": "address",
          "name": "to",
          "type": "address"
        },
        {
          "internalType": "uint256",
          "name": "value",
          "type": "uint256"
        },
        {
          "internalType": "bytes",
          "name": "data",
          "type": "bytes"
        }
      ],
      "name": "sendContractTransaction",
      "outputs": [
        {
          "internalType": "uint256",
          "name": "",
          "type": "uint256"
        }
      ],
      "stateMutability": "nonpayable",
      "type": "function"
    },
    {
      "inputs": [
        {
          "internalType": "uint256",
          "name": "gasLimit",
          "type": "uint256"
        },
        {
          "internalType": "uint256",
          "name": "maxFeePerGas",
          "type": "uint256"
        },
        {
          "internalType": "address",
          "name": "to",
          "type": "address"
        },
        {
          "internalType": "bytes",
          "name": "data",
          "type": "bytes"
        }
      ],
      "name": "sendL1FundedContractTransaction",
      "outputs": [
        {
          "internalType": "uint256",
          "name": "",
          "type": "uint256"
        }
      ],
      "stateMutability": "payable",
      "type": "function"
    },
    {
      "inputs": [
        {
          "internalType": "uint256",
          "name": "gasLimit",
          "type": "uint256"
        },
        {
          "internalType": "uint256",
          "name": "maxFeePerGas",
          "type": "uint256"
        },
        {
          "internalType": "uint256",
          "name": "nonce",
          "type": "uint256"
        },
        {
          "internalType": "address",
          "name": "to",
          "type": "address"
        },
        {
          "internalType": "bytes",
          "name": "data",
          "type": "bytes"
        }
      ],
      "name": "sendL1FundedUnsignedTransaction",
      "outputs": [
        {
          "internalType": "uint256",
          "name": "",
          "type": "uint256"
        }
      ],
      "stateMutability": "payable",
      "type": "function"
    },
    {
      "inputs": [
        {
          "internalType": "uint256",
          "name": "gasLimit",
          "type": "uint256"
        },
        {
          "internalType": "uint256",
          "name": "maxFeePerGas",
          "type": "uint256"
        },
        {
          "internalType": "uint256",
          "name": "nonce",
          "type": "uint256"
        },
        {
          "internalType": "address",
          "name": "to",
          "type": "address"
        },
        {
          "internalType": "bytes",
          "name": "data",
          "type": "bytes"
        }
      ],
      "name": "sendL1FundedUnsignedTransactionToFork",
      "outputs": [
        {
          "internalType": "uint256",
          "name": "",
          "type": "uint256"
        }
      ],
      "stateMutability": "payable",
      "type": "function"
    },
    {
      "inputs": [
        {
          "internalType": "bytes",
          "name": "messageData",
          "type": "bytes"
        }
      ],
      "name": "sendL2Message",
      "outputs": [
        {
          "internalType": "uint256",
          "name": "",
          "type": "uint256"
        }
      ],
      "stateMutability": "nonpayable",
      "type": "function"
    },
    {
      "inputs": [
        {
          "internalType": "bytes",
          "name": "messageData",
          "type": "bytes"
        }
      ],
      "name": "sendL2MessageFromOrigin",
      "outputs": [
        {
          "internalType": "uint256",
          "name": "",
          "type": "uint256"
        }
      ],
      "stateMutability": "nonpayable",
      "type": "function"
    },
    {
      "inputs": [
        {
          "internalType": "uint256",
          "name": "gasLimit",
          "type": "uint256"
        },
        {
          "internalType": "uint256",
          "name": "maxFeePerGas",
          "type": "uint256"
        },
        {
          "internalType": "uint256",
          "name": "nonce",
          "type": "uint256"
        },
        {
          "internalType": "address",
          "name": "to",
          "type": "address"
        },
        {
          "internalType": "uint256",
          "name": "value",
          "type": "uint256"
        },
        {
          "internalType": "bytes",
          "name": "data",
          "type": "bytes"
        }
      ],
      "name": "sendUnsignedTransaction",
      "outputs": [
        {
          "internalType": "uint256",
          "name": "",
          "type": "uint256"
        }
      ],
      "stateMutability": "nonpayable",
      "type": "function"
    },
    {
      "inputs": [
        {
          "internalType": "uint256",
          "name": "gasLimit",
          "type": "uint256"
        },
        {
          "internalType": "uint256",
          "name": "maxFeePerGas",
          "type": "uint256"
        },
        {
          "internalType": "uint256",
          "name": "nonce",
          "type": "uint256"
        },
        {
          "internalType": "address",
          "name": "to",
          "type": "address"
        },
        {
          "internalType": "uint256",
          "name": "value",
          "type": "uint256"
        },
        {
          "internalType": "bytes",
          "name": "data",
          "type": "bytes"
        }
      ],
      "name": "sendUnsignedTransactionToFork",
      "outputs": [
        {
          "internalType": "uint256",
          "name": "",
          "type": "uint256"
        }
      ],
      "stateMutability": "nonpayable",
      "type": "function"
    },
    {
      "inputs": [
        {
          "internalType": "uint256",
          "name": "gasLimit",
          "type": "uint256"
        },
        {
          "internalType": "uint256",
          "name": "maxFeePerGas",
          "type": "uint256"
        },
        {
          "internalType": "uint256",
          "name": "nonce",
          "type": "uint256"
        },
        {
          "internalType": "uint256",
          "name": "value",
          "type": "uint256"
        },
        {
          "internalType": "address",
          "name": "withdrawTo",
          "type": "address"
        }
      ],
      "name": "sendWithdrawEthToFork",
      "outputs": [
        {
          "internalType": "uint256",
          "name": "",
          "type": "uint256"
        }
      ],
      "stateMutability": "nonpayable",
      "type": "function"
    },
    {
      "inputs": [],
      "name": "sequencerInbox",
      "outputs": [
        {
          "internalType": "contract ISequencerInbox",
          "name": "",
          "type": "address"
        }
      ],
      "stateMutability": "view",
      "type": "function"
    },
    {
      "inputs": [
        {
          "internalType": "address[]",
          "name": "user",
          "type": "address[]"
        },
        {
          "internalType": "bool[]",
          "name": "val",
          "type": "bool[]"
        }
      ],
      "name": "setAllowList",
      "outputs": [],
      "stateMutability": "nonpayable",
      "type": "function"
    },
    {
      "inputs": [
        {
          "internalType": "bool",
          "name": "_allowListEnabled",
          "type": "bool"
        }
      ],
      "name": "setAllowListEnabled",
      "outputs": [],
      "stateMutability": "nonpayable",
      "type": "function"
    },
    {
      "inputs": [],
      "name": "unpause",
      "outputs": [],
      "stateMutability": "nonpayable",
      "type": "function"
    },
    {
      "inputs": [
        {
          "internalType": "address",
          "name": "to",
          "type": "address"
        },
        {
          "internalType": "uint256",
          "name": "l2CallValue",
          "type": "uint256"
        },
        {
          "internalType": "uint256",
          "name": "maxSubmissionCost",
          "type": "uint256"
        },
        {
          "internalType": "address",
          "name": "excessFeeRefundAddress",
          "type": "address"
        },
        {
          "internalType": "address",
          "name": "callValueRefundAddress",
          "type": "address"
        },
        {
          "internalType": "uint256",
          "name": "gasLimit",
          "type": "uint256"
        },
        {
          "internalType": "uint256",
          "name": "maxFeePerGas",
          "type": "uint256"
        },
        {
          "internalType": "bytes",
          "name": "data",
          "type": "bytes"
        }
      ],
      "name": "unsafeCreateRetryableTicket",
      "outputs": [
        {
          "internalType": "uint256",
          "name": "",
          "type": "uint256"
        }
      ],
      "stateMutability": "payable",
      "type": "function"
    }
  ],
  "bytecode": "0x60e06040523073ffffffffffffffffffffffffffffffffffffffff1660809073ffffffffffffffffffffffffffffffffffffffff168152504660c0908152503480156200004b57600080fd5b5060405162004b4638038062004b468339818101604052810190620000719190620000c2565b808060a081815250505050620000f4565b600080fd5b6000819050919050565b6200009c8162000087565b8114620000a857600080fd5b50565b600081519050620000bc8162000091565b92915050565b600060208284031215620000db57620000da62000082565b5b6000620000eb84828501620000ab565b91505092915050565b60805160a05160c0516149ff620001476000396000612b9b015260008181610cd001528181610cff015281816128d401528181612be50152612c100152600081816111e601526121f701526149ff6000f3fe6080604052600436106101b65760003560e01c806370665f14116100ec578063c474d2c51161008a578063e78cea9211610064578063e78cea921461063b578063e8eb1dc314610666578063ee35f32714610691578063efeadb6d146106bc576101b6565b8063c474d2c5146105b9578063e3de72a5146105e2578063e6bd12cf1461060b576101b6565b80638b3240a0116100c65780638b3240a0146104d7578063a66b327d14610502578063b75436bb1461053f578063babcc5391461057c576101b6565b806370665f14146104465780638456cb59146104835780638a631aa61461049a576101b6565b8063485cc955116101595780635e916758116101335780635e91675814610386578063679b6ded146103b657806367ef3ab8146103e65780636e6e8a6a14610416576101b6565b8063485cc955146102f55780635075788b1461031e5780635c975abb1461035b576101b6565b80631fe927cf116101955780631fe927cf1461025857806322bd5c1c146102955780633f4ba83a146102c0578063439370b1146102d7576101b6565b8062f72382146101bb5780630f4d14e9146101f85780631b871c8d14610228575b600080fd5b3480156101c757600080fd5b506101e260048036038101906101dd919061347c565b6106e5565b6040516101ef919061353a565b60405180910390f35b610212600480360381019061020d9190613555565b610925565b60405161021f919061353a565b60405180910390f35b610242600480360381019061023d9190613582565b610a26565b60405161024f919061353a565b60405180910390f35b34801561026457600080fd5b5061027f600480360381019061027a9190613658565b610b38565b60405161028c919061353a565b60405180910390f35b3480156102a157600080fd5b506102aa610dbb565b6040516102b791906136c0565b60405180910390f35b3480156102cc57600080fd5b506102d5610dce565b005b6102df610fa8565b6040516102ec919061353a565b60405180910390f35b34801561030157600080fd5b5061031c60048036038101906103179190613757565b611124565b005b34801561032a57600080fd5b506103456004803603810190610340919061347c565b6112a3565b604051610352919061353a565b60405180910390f35b34801561036757600080fd5b50610370611438565b60405161037d91906136c0565b60405180910390f35b6103a0600480360381019061039b9190613797565b61144f565b6040516103ad919061353a565b60405180910390f35b6103d060048036038101906103cb9190613582565b6115df565b6040516103dd919061353a565b60405180910390f35b61040060048036038101906103fb919061381f565b6116f2565b60405161040d919061353a565b60405180910390f35b610430600480360381019061042b9190613582565b611885565b60405161043d919061353a565b60405180910390f35b34801561045257600080fd5b5061046d600480360381019061046891906138b9565b611998565b60405161047a919061353a565b60405180910390f35b34801561048f57600080fd5b50610498611c4a565b005b3480156104a657600080fd5b506104c160048036038101906104bc9190613934565b611e24565b6040516104ce919061353a565b60405180910390f35b3480156104e357600080fd5b506104ec611fb6565b6040516104f991906139dd565b60405180910390f35b34801561050e57600080fd5b50610529600480360381019061052491906139f8565b61200d565b604051610536919061353a565b60405180910390f35b34801561054b57600080fd5b5061056660048036038101906105619190613658565b61204a565b604051610573919061353a565b60405180910390f35b34801561058857600080fd5b506105a3600480360381019061059e9190613a38565b6121d5565b6040516105b091906136c0565b60405180910390f35b3480156105c557600080fd5b506105e060048036038101906105db9190613a65565b6121f5565b005b3480156105ee57600080fd5b5061060960048036038101906106049190613cd0565b612329565b005b6106256004803603810190610620919061381f565b61266e565b604051610632919061353a565b60405180910390f35b34801561064757600080fd5b506106506128ac565b60405161065d9190613da7565b60405180910390f35b34801561067257600080fd5b5061067b6128d2565b604051610688919061353a565b60405180910390f35b34801561069d57600080fd5b506106a66128f6565b6040516106b39190613de3565b60405180910390f35b3480156106c857600080fd5b506106e360048036038101906106de9190613dfe565b61291c565b005b60006106ef611438565b1561072f576040517f08c379a000000000000000000000000000000000000000000000000000000000815260040161072690613e88565b60405180910390fd5b606660149054906101000a900460ff1680156107955750606760003273ffffffffffffffffffffffffffffffffffffffff1673ffffffffffffffffffffffffffffffffffffffff16815260200190815260200160002060009054906101000a900460ff16155b156107d757326040517ff51ed7100000000000000000000000000000000000000000000000000000000081526004016107ce91906139dd565b60405180910390fd5b6107df612b96565b610815576040517fa301bb0600000000000000000000000000000000000000000000000000000000815260040160405180910390fd5b3273ffffffffffffffffffffffffffffffffffffffff163373ffffffffffffffffffffffffffffffffffffffff161461087a576040517ffeb3d07100000000000000000000000000000000000000000000000000000000815260040160405180910390fd5b67ffffffffffffffff80168811156108be576040517f107c527b00000000000000000000000000000000000000000000000000000000815260040160405180910390fd5b61091860036108cc33612bc1565b60008b8b8b8b73ffffffffffffffffffffffffffffffffffffffff168b8b8b604051602001610902989796959493929190613f4b565b6040516020818303038152906040526000612be1565b9050979650505050505050565b600061092f611438565b1561096f576040517f08c379a000000000000000000000000000000000000000000000000000000000815260040161096690613e88565b60405180910390fd5b606660149054906101000a900460ff1680156109d55750606760003273ffffffffffffffffffffffffffffffffffffffff1673ffffffffffffffffffffffffffffffffffffffff16815260200190815260200160002060009054906101000a900460ff16155b15610a1757326040517ff51ed710000000000000000000000000000000000000000000000000000000008152600401610a0e91906139dd565b60405180910390fd5b610a1f610fa8565b9050919050565b6000610a30611438565b15610a70576040517f08c379a0000000000000000000000000000000000000000000000000000000008152600401610a6790613e88565b60405180910390fd5b606660149054906101000a900460ff168015610ad65750606760003273ffffffffffffffffffffffffffffffffffffffff1673ffffffffffffffffffffffffffffffffffffffff16815260200190815260200160002060009054906101000a900460ff16155b15610b1857326040517ff51ed710000000000000000000000000000000000000000000000000000000008152600401610b0f91906139dd565b60405180910390fd5b610b298a8a8a8a8a8a8a8a8a611885565b90509998505050505050505050565b6000610b42611438565b15610b82576040517f08c379a0000000000000000000000000000000000000000000000000000000008152600401610b7990613e88565b60405180910390fd5b606660149054906101000a900460ff168015610be85750606760003273ffffffffffffffffffffffffffffffffffffffff1673ffffffffffffffffffffffffffffffffffffffff16815260200190815260200160002060009054906101000a900460ff16155b15610c2a57326040517ff51ed710000000000000000000000000000000000000000000000000000000008152600401610c2191906139dd565b60405180910390fd5b610c32612b96565b15610c69576040517fc6ea680300000000000000000000000000000000000000000000000000000000815260040160405180910390fd5b3273ffffffffffffffffffffffffffffffffffffffff163373ffffffffffffffffffffffffffffffffffffffff1614610cce576040517ffeb3d07100000000000000000000000000000000000000000000000000000000815260040160405180910390fd5b7f0000000000000000000000000000000000000000000000000000000000000000838390501115610d5b57828290507f00000000000000000000000000000000000000000000000000000000000000006040517f4634691b000000000000000000000000000000000000000000000000000000008152600401610d52929190613fca565b60405180910390fd5b6000610d826003338686604051610d73929190613ff3565b60405180910390206000612cc7565b9050807fab532385be8f1005a4b6ba8fa20a2245facb346134ac739fe9a5198dc1580b9c60405160405180910390a28091505092915050565b606660149054906101000a900460ff1681565b6000606560009054906101000a900473ffffffffffffffffffffffffffffffffffffffff1673ffffffffffffffffffffffffffffffffffffffff1663cb23bcb56040518163ffffffff1660e01b815260040160206040518083038186803b158015610e3857600080fd5b505afa158015610e4c573d6000803e3d6000fd5b505050506040513d601f19601f82011682018060405250810190610e70919061404a565b90508073ffffffffffffffffffffffffffffffffffffffff163373ffffffffffffffffffffffffffffffffffffffff1614610f9d5760008173ffffffffffffffffffffffffffffffffffffffff16638da5cb5b6040518163ffffffff1660e01b815260040160206040518083038186803b158015610eed57600080fd5b505afa158015610f01573d6000803e3d6000fd5b505050506040513d601f19601f82011682018060405250810190610f25919061408c565b90508073ffffffffffffffffffffffffffffffffffffffff163373ffffffffffffffffffffffffffffffffffffffff1614610f9b573382826040517f07396007000000000000000000000000000000000000000000000000000000008152600401610f92939291906140b9565b60405180910390fd5b505b610fa5612d8d565b50565b6000610fb2611438565b15610ff2576040517f08c379a0000000000000000000000000000000000000000000000000000000008152600401610fe990613e88565b60405180910390fd5b606660149054906101000a900460ff1680156110585750606760003273ffffffffffffffffffffffffffffffffffffffff1673ffffffffffffffffffffffffffffffffffffffff16815260200190815260200160002060009054906101000a900460ff16155b1561109a57326040517ff51ed71000000000000000000000000000000000000000000000000000000000815260040161109191906139dd565b60405180910390fd5b60003390506110a833612e2f565b806110df57503373ffffffffffffffffffffffffffffffffffffffff163273ffffffffffffffffffffffffffffffffffffffff1614155b156110f0576110ed33612e52565b90505b61111e600c338334604051602001611109929190614138565b60405160208183030381529060405234612be1565b91505090565b600060019054906101000a900460ff1661114c5760008054906101000a900460ff1615611155565b611154612e72565b5b611194576040517f08c379a000000000000000000000000000000000000000000000000000000000815260040161118b906141d6565b60405180910390fd5b60008060019054906101000a900460ff1615905080156111e4576001600060016101000a81548160ff02191690831515021790555060016000806101000a81548160ff0219169083151502179055505b7f000000000000000000000000000000000000000000000000000000000000000073ffffffffffffffffffffffffffffffffffffffff163073ffffffffffffffffffffffffffffffffffffffff161415611273576040517f08c379a000000000000000000000000000000000000000000000000000000000815260040161126a90614268565b60405180910390fd5b61127d8383612e83565b801561129e5760008060016101000a81548160ff0219169083151502179055505b505050565b60006112ad611438565b156112ed576040517f08c379a00000000000000000000000000000000000000000000000000000000081526004016112e490613e88565b60405180910390fd5b606660149054906101000a900460ff1680156113535750606760003273ffffffffffffffffffffffffffffffffffffffff1673ffffffffffffffffffffffffffffffffffffffff16815260200190815260200160002060009054906101000a900460ff16155b1561139557326040517ff51ed71000000000000000000000000000000000000000000000000000000000815260040161138c91906139dd565b60405180910390fd5b67ffffffffffffffff80168811156113d9576040517f107c527b00000000000000000000000000000000000000000000000000000000815260040160405180910390fd5b61142b60033360008b8b8b8b73ffffffffffffffffffffffffffffffffffffffff168b8b8b604051602001611415989796959493929190613f4b565b6040516020818303038152906040526000612be1565b9050979650505050505050565b6000603360009054906101000a900460ff16905090565b6000611459611438565b15611499576040517f08c379a000000000000000000000000000000000000000000000000000000000815260040161149090613e88565b60405180910390fd5b606660149054906101000a900460ff1680156114ff5750606760003273ffffffffffffffffffffffffffffffffffffffff1673ffffffffffffffffffffffffffffffffffffffff16815260200190815260200160002060009054906101000a900460ff16155b1561154157326040517ff51ed71000000000000000000000000000000000000000000000000000000000815260040161153891906139dd565b60405180910390fd5b67ffffffffffffffff8016861115611585576040517f107c527b00000000000000000000000000000000000000000000000000000000815260040160405180910390fd5b6115d4600733600189898973ffffffffffffffffffffffffffffffffffffffff16348a8a6040516020016115bf9796959493929190614288565b60405160208183030381529060405234612be1565b905095945050505050565b60006115e9611438565b15611629576040517f08c379a000000000000000000000000000000000000000000000000000000000815260040161162090613e88565b60405180910390fd5b606660149054906101000a900460ff16801561168f5750606760003273ffffffffffffffffffffffffffffffffffffffff1673ffffffffffffffffffffffffffffffffffffffff16815260200190815260200160002060009054906101000a900460ff16155b156116d157326040517ff51ed7100000000000000000000000000000000000000000000000000000000081526004016116c891906139dd565b60405180910390fd5b6116e38a8a8a8a8a8a8a348b8b612f7b565b90509998505050505050505050565b60006116fc611438565b1561173c576040517f08c379a000000000000000000000000000000000000000000000000000000000815260040161173390613e88565b60405180910390fd5b606660149054906101000a900460ff1680156117a25750606760003273ffffffffffffffffffffffffffffffffffffffff1673ffffffffffffffffffffffffffffffffffffffff16815260200190815260200160002060009054906101000a900460ff16155b156117e457326040517ff51ed7100000000000000000000000000000000000000000000000000000000081526004016117db91906139dd565b60405180910390fd5b67ffffffffffffffff8016871115611828576040517f107c527b00000000000000000000000000000000000000000000000000000000815260040160405180910390fd5b61187960073360008a8a8a8a73ffffffffffffffffffffffffffffffffffffffff16348b8b604051602001611864989796959493929190613f4b565b60405160208183030381529060405234612be1565b90509695505050505050565b600061188f611438565b156118cf576040517f08c379a00000000000000000000000000000000000000000000000000000000081526004016118c690613e88565b60405180910390fd5b606660149054906101000a900460ff1680156119355750606760003273ffffffffffffffffffffffffffffffffffffffff1673ffffffffffffffffffffffffffffffffffffffff16815260200190815260200160002060009054906101000a900460ff16155b1561197757326040517ff51ed71000000000000000000000000000000000000000000000000000000000815260040161196e91906139dd565b60405180910390fd5b6119898a8a8a8a8a8a8a348b8b61305c565b90509998505050505050505050565b60006119a2611438565b156119e2576040517f08c379a00000000000000000000000000000000000000000000000000000000081526004016119d990613e88565b60405180910390fd5b606660149054906101000a900460ff168015611a485750606760003273ffffffffffffffffffffffffffffffffffffffff1673ffffffffffffffffffffffffffffffffffffffff16815260200190815260200160002060009054906101000a900460ff16155b15611a8a57326040517ff51ed710000000000000000000000000000000000000000000000000000000008152600401611a8191906139dd565b60405180910390fd5b611a92612b96565b611ac8576040517fa301bb0600000000000000000000000000000000000000000000000000000000815260040160405180910390fd5b3273ffffffffffffffffffffffffffffffffffffffff163373ffffffffffffffffffffffffffffffffffffffff1614611b2d576040517ffeb3d07100000000000000000000000000000000000000000000000000000000815260040160405180910390fd5b67ffffffffffffffff8016861115611b71576040517f107c527b00000000000000000000000000000000000000000000000000000000815260040160405180910390fd5b611c3f6003611b7f33612bc1565b6000898989606473ffffffffffffffffffffffffffffffffffffffff168a6325e1606360e01b8b604051602401611bb691906139dd565b604051602081830303815290604052907bffffffffffffffffffffffffffffffffffffffffffffffffffffffff19166020820180517bffffffffffffffffffffffffffffffffffffffffffffffffffffffff8381831617835250505050604051602001611c299796959493929190614365565b6040516020818303038152906040526000612be1565b905095945050505050565b6000606560009054906101000a900473ffffffffffffffffffffffffffffffffffffffff1673ffffffffffffffffffffffffffffffffffffffff1663cb23bcb56040518163ffffffff1660e01b815260040160206040518083038186803b158015611cb457600080fd5b505afa158015611cc8573d6000803e3d6000fd5b505050506040513d601f19601f82011682018060405250810190611cec919061404a565b90508073ffffffffffffffffffffffffffffffffffffffff163373ffffffffffffffffffffffffffffffffffffffff1614611e195760008173ffffffffffffffffffffffffffffffffffffffff16638da5cb5b6040518163ffffffff1660e01b815260040160206040518083038186803b158015611d6957600080fd5b505afa158015611d7d573d6000803e3d6000fd5b505050506040513d601f19601f82011682018060405250810190611da1919061408c565b90508073ffffffffffffffffffffffffffffffffffffffff163373ffffffffffffffffffffffffffffffffffffffff1614611e17573382826040517f07396007000000000000000000000000000000000000000000000000000000008152600401611e0e939291906140b9565b60405180910390fd5b505b611e216131f5565b50565b6000611e2e611438565b15611e6e576040517f08c379a0000000000000000000000000000000000000000000000000000000008152600401611e6590613e88565b60405180910390fd5b606660149054906101000a900460ff168015611ed45750606760003273ffffffffffffffffffffffffffffffffffffffff1673ffffffffffffffffffffffffffffffffffffffff16815260200190815260200160002060009054906101000a900460ff16155b15611f1657326040517ff51ed710000000000000000000000000000000000000000000000000000000008152600401611f0d91906139dd565b60405180910390fd5b67ffffffffffffffff8016871115611f5a576040517f107c527b00000000000000000000000000000000000000000000000000000000815260040160405180910390fd5b611faa60033360018a8a8a73ffffffffffffffffffffffffffffffffffffffff168a8a8a604051602001611f949796959493929190614288565b6040516020818303038152906040526000612be1565b90509695505050505050565b6000611fe47fb53127684a568b3173ae13b9f8a6016e243e63b6e8ee1178d6a717850b5d610360001b613298565b60000160009054906101000a900473ffffffffffffffffffffffffffffffffffffffff16905090565b600080821461201c578161201e565b485b83600661202b9190614411565b610578612038919061446b565b6120429190614411565b905092915050565b6000612054611438565b15612094576040517f08c379a000000000000000000000000000000000000000000000000000000000815260040161208b90613e88565b60405180910390fd5b606660149054906101000a900460ff1680156120fa5750606760003273ffffffffffffffffffffffffffffffffffffffff1673ffffffffffffffffffffffffffffffffffffffff16815260200190815260200160002060009054906101000a900460ff16155b1561213c57326040517ff51ed71000000000000000000000000000000000000000000000000000000000815260040161213391906139dd565b60405180910390fd5b612144612b96565b1561217b576040517fc6ea680300000000000000000000000000000000000000000000000000000000815260040160405180910390fd5b6121cd60033385858080601f016020809104026020016040519081016040528093929190818152602001838380828437600081840152601f19601f820116905080830192505050505050506000612be1565b905092915050565b60676020528060005260406000206000915054906101000a900460ff1681565b7f000000000000000000000000000000000000000000000000000000000000000073ffffffffffffffffffffffffffffffffffffffff163073ffffffffffffffffffffffffffffffffffffffff161415612284576040517f08c379a000000000000000000000000000000000000000000000000000000000815260040161227b90614268565b60405180910390fd5b60007fb53127684a568b3173ae13b9f8a6016e243e63b6e8ee1178d6a717850b5d610360001b90506000815490508073ffffffffffffffffffffffffffffffffffffffff163373ffffffffffffffffffffffffffffffffffffffff16146123245733816040517f23295f0e00000000000000000000000000000000000000000000000000000000815260040161231b9291906144c1565b60405180910390fd5b505050565b6000606560009054906101000a900473ffffffffffffffffffffffffffffffffffffffff1673ffffffffffffffffffffffffffffffffffffffff1663cb23bcb56040518163ffffffff1660e01b815260040160206040518083038186803b15801561239357600080fd5b505afa1580156123a7573d6000803e3d6000fd5b505050506040513d601f19601f820116820180604052508101906123cb919061404a565b90508073ffffffffffffffffffffffffffffffffffffffff163373ffffffffffffffffffffffffffffffffffffffff16146124f85760008173ffffffffffffffffffffffffffffffffffffffff16638da5cb5b6040518163ffffffff1660e01b815260040160206040518083038186803b15801561244857600080fd5b505afa15801561245c573d6000803e3d6000fd5b505050506040513d601f19601f82011682018060405250810190612480919061408c565b90508073ffffffffffffffffffffffffffffffffffffffff163373ffffffffffffffffffffffffffffffffffffffff16146124f6573382826040517f073960070000000000000000000000000000000000000000000000000000000081526004016124ed939291906140b9565b60405180910390fd5b505b815183511461253c576040517f08c379a000000000000000000000000000000000000000000000000000000000815260040161253390614536565b60405180910390fd5b60005b83518110156126685782818151811061255b5761255a614556565b5b60200260200101516067600086848151811061257a57612579614556565b5b602002602001015173ffffffffffffffffffffffffffffffffffffffff1673ffffffffffffffffffffffffffffffffffffffff16815260200190815260200160002060006101000a81548160ff0219169083151502179055508381815181106125e6576125e5614556565b5b602002602001015173ffffffffffffffffffffffffffffffffffffffff167fd9739f45a01ce092c5cdb3d68f63d63d21676b1c6c0b4f9cbc6be4cf5449595a84838151811061263857612637614556565b5b602002602001015160405161264d91906136c0565b60405180910390a2808061266090614585565b91505061253f565b50505050565b6000612678611438565b156126b8576040517f08c379a00000000000000000000000000000000000000000000000000000000081526004016126af90613e88565b60405180910390fd5b606660149054906101000a900460ff16801561271e5750606760003273ffffffffffffffffffffffffffffffffffffffff1673ffffffffffffffffffffffffffffffffffffffff16815260200190815260200160002060009054906101000a900460ff16155b1561276057326040517ff51ed71000000000000000000000000000000000000000000000000000000000815260040161275791906139dd565b60405180910390fd5b612768612b96565b61279e576040517fa301bb0600000000000000000000000000000000000000000000000000000000815260040160405180910390fd5b3273ffffffffffffffffffffffffffffffffffffffff163373ffffffffffffffffffffffffffffffffffffffff1614612803576040517ffeb3d07100000000000000000000000000000000000000000000000000000000815260040160405180910390fd5b67ffffffffffffffff8016871115612847576040517f107c527b00000000000000000000000000000000000000000000000000000000815260040160405180910390fd5b6128a0600761285533612bc1565b60008a8a8a8a73ffffffffffffffffffffffffffffffffffffffff16348b8b60405160200161288b989796959493929190613f4b565b60405160208183030381529060405234612be1565b90509695505050505050565b606560009054906101000a900473ffffffffffffffffffffffffffffffffffffffff1681565b7f000000000000000000000000000000000000000000000000000000000000000081565b606660009054906101000a900473ffffffffffffffffffffffffffffffffffffffff1681565b6000606560009054906101000a900473ffffffffffffffffffffffffffffffffffffffff1673ffffffffffffffffffffffffffffffffffffffff1663cb23bcb56040518163ffffffff1660e01b815260040160206040518083038186803b15801561298657600080fd5b505afa15801561299a573d6000803e3d6000fd5b505050506040513d601f19601f820116820180604052508101906129be919061404a565b90508073ffffffffffffffffffffffffffffffffffffffff163373ffffffffffffffffffffffffffffffffffffffff1614612aeb5760008173ffffffffffffffffffffffffffffffffffffffff16638da5cb5b6040518163ffffffff1660e01b815260040160206040518083038186803b158015612a3b57600080fd5b505afa158015612a4f573d6000803e3d6000fd5b505050506040513d601f19601f82011682018060405250810190612a73919061408c565b90508073ffffffffffffffffffffffffffffffffffffffff163373ffffffffffffffffffffffffffffffffffffffff1614612ae9573382826040517f07396007000000000000000000000000000000000000000000000000000000008152600401612ae0939291906140b9565b60405180910390fd5b505b606660149054906101000a900460ff1615158215151415612b41576040517f08c379a0000000000000000000000000000000000000000000000000000000008152600401612b389061461a565b60405180910390fd5b81606660146101000a81548160ff0219169083151502179055507f16435b45f7482047f839a6a19d291442627200f52cad2803c595150d0d440eb382604051612b8a91906136c0565b60405180910390a15050565b6000467f00000000000000000000000000000000000000000000000000000000000000001415905090565b600073111100000000000000000000000000000000111182039050919050565b60007f000000000000000000000000000000000000000000000000000000000000000083511115612c6c5782517f00000000000000000000000000000000000000000000000000000000000000006040517f4634691b000000000000000000000000000000000000000000000000000000008152600401612c63929190613fca565b60405180910390fd5b6000612c818686868051906020012086612cc7565b9050807fff64905f73a67fb594e0f940a8075a860db489ad991e032f48c81123eb52d60b85604051612cb39190614684565b60405180910390a280915050949350505050565b6000606560009054906101000a900473ffffffffffffffffffffffffffffffffffffffff1673ffffffffffffffffffffffffffffffffffffffff16638db5993b8387612d1288612e52565b876040518563ffffffff1660e01b8152600401612d31939291906146ce565b6020604051808303818588803b158015612d4a57600080fd5b505af1158015612d5e573d6000803e3d6000fd5b50505050506040513d601f19601f82011682018060405250810190612d83919061471a565b9050949350505050565b612d95611438565b612dd4576040517f08c379a0000000000000000000000000000000000000000000000000000000008152600401612dcb90614793565b60405180910390fd5b6000603360006101000a81548160ff0219169083151502179055507f5db9ee0a495bf2e6ff9c91a7834c1ba4fdd244a5e8aa4e537bd38aeae4b073aa612e186132a2565b604051612e2591906139dd565b60405180910390a1565b6000808273ffffffffffffffffffffffffffffffffffffffff163b119050919050565b600073111100000000000000000000000000000000111182019050919050565b6000612e7d30612e2f565b15905090565b600060019054906101000a900460ff16612ed2576040517f08c379a0000000000000000000000000000000000000000000000000000000008152600401612ec990614825565b60405180910390fd5b81606560006101000a81548173ffffffffffffffffffffffffffffffffffffffff021916908373ffffffffffffffffffffffffffffffffffffffff16021790555080606660006101000a81548173ffffffffffffffffffffffffffffffffffffffff021916908373ffffffffffffffffffffffffffffffffffffffff1602179055506000606660146101000a81548160ff021916908315150217905550612f776132aa565b5050565b60008486612f899190614411565b8a8a612f95919061446b565b612f9f919061446b565b841015613006578486612fb29190614411565b8a8a612fbe919061446b565b612fc8919061446b565b846040517f7040b58c000000000000000000000000000000000000000000000000000000008152600401612ffd929190613fca565b60405180910390fd5b61300f88612e2f565b156130205761301d88612e52565b97505b61302987612e2f565b1561303a5761303787612e52565b96505b61304c8b8b8b8b8b8b8b8b8b8b61305c565b90509a9950505050505050505050565b6000600186148061306d5750600185145b156130c357338b8b868c8c8c8c8c8b8b6040517f07c266e30000000000000000000000000000000000000000000000000000000081526004016130ba9b9a99989796959493929190614872565b60405180910390fd5b67ffffffffffffffff8016861115613107576040517f107c527b00000000000000000000000000000000000000000000000000000000815260040160405180910390fd5b6000613116848490504861200d565b9050808a101561315f57808a6040517ffadf238a000000000000000000000000000000000000000000000000000000008152600401613156929190613fca565b60405180910390fd5b6131e46009338e73ffffffffffffffffffffffffffffffffffffffff168e898f8f73ffffffffffffffffffffffffffffffffffffffff168f73ffffffffffffffffffffffffffffffffffffffff168f8f8e8e90508f8f6040516020016131cf9b9a99989796959493929190614917565b60405160208183030381529060405288612be1565b9150509a9950505050505050505050565b6131fd611438565b1561323d576040517f08c379a000000000000000000000000000000000000000000000000000000000815260040161323490613e88565b60405180910390fd5b6001603360006101000a81548160ff0219169083151502179055507f62e78cea01bee320cd4e420270b5ea74000d11b0c9f74754ebdbfc544b05a2586132816132a2565b60405161328e91906139dd565b60405180910390a1565b6000819050919050565b600033905090565b600060019054906101000a900460ff166132f9576040517f08c379a00000000000000000000000000000000000000000000000000000000081526004016132f090614825565b60405180910390fd5b613301613303565b565b600060019054906101000a900460ff16613352576040517f08c379a000000000000000000000000000000000000000000000000000000000815260040161334990614825565b60405180910390fd5b6000603360006101000a81548160ff021916908315150217905550565b6000604051905090565b600080fd5b600080fd5b6000819050919050565b61339681613383565b81146133a157600080fd5b50565b6000813590506133b38161338d565b92915050565b600073ffffffffffffffffffffffffffffffffffffffff82169050919050565b60006133e4826133b9565b9050919050565b6133f4816133d9565b81146133ff57600080fd5b50565b600081359050613411816133eb565b92915050565b600080fd5b600080fd5b600080fd5b60008083601f84011261343c5761343b613417565b5b8235905067ffffffffffffffff8111156134595761345861341c565b5b60208301915083600182028301111561347557613474613421565b5b9250929050565b600080600080600080600060c0888a03121561349b5761349a613379565b5b60006134a98a828b016133a4565b97505060206134ba8a828b016133a4565b96505060406134cb8a828b016133a4565b95505060606134dc8a828b01613402565b94505060806134ed8a828b016133a4565b93505060a088013567ffffffffffffffff81111561350e5761350d61337e565b5b61351a8a828b01613426565b925092505092959891949750929550565b61353481613383565b82525050565b600060208201905061354f600083018461352b565b92915050565b60006020828403121561356b5761356a613379565b5b6000613579848285016133a4565b91505092915050565b60008060008060008060008060006101008a8c0312156135a5576135a4613379565b5b60006135b38c828d01613402565b99505060206135c48c828d016133a4565b98505060406135d58c828d016133a4565b97505060606135e68c828d01613402565b96505060806135f78c828d01613402565b95505060a06136088c828d016133a4565b94505060c06136198c828d016133a4565b93505060e08a013567ffffffffffffffff81111561363a5761363961337e565b5b6136468c828d01613426565b92509250509295985092959850929598565b6000806020838503121561366f5761366e613379565b5b600083013567ffffffffffffffff81111561368d5761368c61337e565b5b61369985828601613426565b92509250509250929050565b60008115159050919050565b6136ba816136a5565b82525050565b60006020820190506136d560008301846136b1565b92915050565b60006136e6826133d9565b9050919050565b6136f6816136db565b811461370157600080fd5b50565b600081359050613713816136ed565b92915050565b6000613724826133d9565b9050919050565b61373481613719565b811461373f57600080fd5b50565b6000813590506137518161372b565b92915050565b6000806040838503121561376e5761376d613379565b5b600061377c85828601613704565b925050602061378d85828601613742565b9150509250929050565b6000806000806000608086880312156137b3576137b2613379565b5b60006137c1888289016133a4565b95505060206137d2888289016133a4565b94505060406137e388828901613402565b935050606086013567ffffffffffffffff8111156138045761380361337e565b5b61381088828901613426565b92509250509295509295909350565b60008060008060008060a0878903121561383c5761383b613379565b5b600061384a89828a016133a4565b965050602061385b89828a016133a4565b955050604061386c89828a016133a4565b945050606061387d89828a01613402565b935050608087013567ffffffffffffffff81111561389e5761389d61337e565b5b6138aa89828a01613426565b92509250509295509295509295565b600080600080600060a086880312156138d5576138d4613379565b5b60006138e3888289016133a4565b95505060206138f4888289016133a4565b9450506040613905888289016133a4565b9350506060613916888289016133a4565b925050608061392788828901613402565b9150509295509295909350565b60008060008060008060a0878903121561395157613950613379565b5b600061395f89828a016133a4565b965050602061397089828a016133a4565b955050604061398189828a01613402565b945050606061399289828a016133a4565b935050608087013567ffffffffffffffff8111156139b3576139b261337e565b5b6139bf89828a01613426565b92509250509295509295509295565b6139d7816133d9565b82525050565b60006020820190506139f260008301846139ce565b92915050565b60008060408385031215613a0f57613a0e613379565b5b6000613a1d858286016133a4565b9250506020613a2e858286016133a4565b9150509250929050565b600060208284031215613a4e57613a4d613379565b5b6000613a5c84828501613402565b91505092915050565b600060208284031215613a7b57613a7a613379565b5b6000613a8984828501613704565b91505092915050565b6000601f19601f8301169050919050565b7f4e487b7100000000000000000000000000000000000000000000000000000000600052604160045260246000fd5b613adb82613a92565b810181811067ffffffffffffffff82111715613afa57613af9613aa3565b5b80604052505050565b6000613b0d61336f565b9050613b198282613ad2565b919050565b600067ffffffffffffffff821115613b3957613b38613aa3565b5b602082029050602081019050919050565b6000613b5d613b5884613b1e565b613b03565b90508083825260208201905060208402830185811115613b8057613b7f613421565b5b835b81811015613ba95780613b958882613402565b845260208401935050602081019050613b82565b5050509392505050565b600082601f830112613bc857613bc7613417565b5b8135613bd8848260208601613b4a565b91505092915050565b600067ffffffffffffffff821115613bfc57613bfb613aa3565b5b602082029050602081019050919050565b613c16816136a5565b8114613c2157600080fd5b50565b600081359050613c3381613c0d565b92915050565b6000613c4c613c4784613be1565b613b03565b90508083825260208201905060208402830185811115613c6f57613c6e613421565b5b835b81811015613c985780613c848882613c24565b845260208401935050602081019050613c71565b5050509392505050565b600082601f830112613cb757613cb6613417565b5b8135613cc7848260208601613c39565b91505092915050565b60008060408385031215613ce757613ce6613379565b5b600083013567ffffffffffffffff811115613d0557613d0461337e565b5b613d1185828601613bb3565b925050602083013567ffffffffffffffff811115613d3257613d3161337e565b5b613d3e85828601613ca2565b9150509250929050565b6000819050919050565b6000613d6d613d68613d63846133b9565b613d48565b6133b9565b9050919050565b6000613d7f82613d52565b9050919050565b6000613d9182613d74565b9050919050565b613da181613d86565b82525050565b6000602082019050613dbc6000830184613d98565b92915050565b6000613dcd82613d74565b9050919050565b613ddd81613dc2565b82525050565b6000602082019050613df86000830184613dd4565b92915050565b600060208284031215613e1457613e13613379565b5b6000613e2284828501613c24565b91505092915050565b600082825260208201905092915050565b7f5061757361626c653a2070617573656400000000000000000000000000000000600082015250565b6000613e72601083613e2b565b9150613e7d82613e3c565b602082019050919050565b60006020820190508181036000830152613ea181613e65565b9050919050565b600060ff82169050919050565b60008160f81b9050919050565b6000613ecd82613eb5565b9050919050565b613ee5613ee082613ea8565b613ec2565b82525050565b6000819050919050565b613f06613f0182613383565b613eeb565b82525050565b600081905092915050565b82818337600083830152505050565b6000613f328385613f0c565b9350613f3f838584613f17565b82840190509392505050565b6000613f57828b613ed4565b600182019150613f67828a613ef5565b602082019150613f778289613ef5565b602082019150613f878288613ef5565b602082019150613f978287613ef5565b602082019150613fa78286613ef5565b602082019150613fb8828486613f26565b91508190509998505050505050505050565b6000604082019050613fdf600083018561352b565b613fec602083018461352b565b9392505050565b6000614000828486613f26565b91508190509392505050565b6000614017826133d9565b9050919050565b6140278161400c565b811461403257600080fd5b50565b6000815190506140448161401e565b92915050565b6000602082840312156140605761405f613379565b5b600061406e84828501614035565b91505092915050565b600081519050614086816133eb565b92915050565b6000602082840312156140a2576140a1613379565b5b60006140b084828501614077565b91505092915050565b60006060820190506140ce60008301866139ce565b6140db60208301856139ce565b6140e860408301846139ce565b949350505050565b60008160601b9050919050565b6000614108826140f0565b9050919050565b600061411a826140fd565b9050919050565b61413261412d826133d9565b61410f565b82525050565b60006141448285614121565b6014820191506141548284613ef5565b6020820191508190509392505050565b7f496e697469616c697a61626c653a20636f6e747261637420697320616c72656160008201527f647920696e697469616c697a6564000000000000000000000000000000000000602082015250565b60006141c0602e83613e2b565b91506141cb82614164565b604082019050919050565b600060208201905081810360008301526141ef816141b3565b9050919050565b7f46756e6374696f6e206d7573742062652063616c6c6564207468726f7567682060008201527f64656c656761746563616c6c0000000000000000000000000000000000000000602082015250565b6000614252602c83613e2b565b915061425d826141f6565b604082019050919050565b6000602082019050818103600083015261428181614245565b9050919050565b6000614294828a613ed4565b6001820191506142a48289613ef5565b6020820191506142b48288613ef5565b6020820191506142c48287613ef5565b6020820191506142d48286613ef5565b6020820191506142e5828486613f26565b915081905098975050505050505050565b600081519050919050565b60005b8381101561431f578082015181840152602081019050614304565b8381111561432e576000848401525b50505050565b600061433f826142f6565b6143498185613f0c565b9350614359818560208601614301565b80840191505092915050565b6000614371828a613ed4565b6001820191506143818289613ef5565b6020820191506143918288613ef5565b6020820191506143a18287613ef5565b6020820191506143b18286613ef5565b6020820191506143c18285613ef5565b6020820191506143d18284614334565b915081905098975050505050505050565b7f4e487b7100000000000000000000000000000000000000000000000000000000600052601160045260246000fd5b600061441c82613383565b915061442783613383565b9250817fffffffffffffffffffffffffffffffffffffffffffffffffffffffffffffffff04831182151516156144605761445f6143e2565b5b828202905092915050565b600061447682613383565b915061448183613383565b9250827fffffffffffffffffffffffffffffffffffffffffffffffffffffffffffffffff038211156144b6576144b56143e2565b5b828201905092915050565b60006040820190506144d660008301856139ce565b6144e360208301846139ce565b9392505050565b7f494e56414c49445f494e50555400000000000000000000000000000000000000600082015250565b6000614520600d83613e2b565b915061452b826144ea565b602082019050919050565b6000602082019050818103600083015261454f81614513565b9050919050565b7f4e487b7100000000000000000000000000000000000000000000000000000000600052603260045260246000fd5b600061459082613383565b91507fffffffffffffffffffffffffffffffffffffffffffffffffffffffffffffffff8214156145c3576145c26143e2565b5b600182019050919050565b7f414c52454144595f534554000000000000000000000000000000000000000000600082015250565b6000614604600b83613e2b565b915061460f826145ce565b602082019050919050565b60006020820190508181036000830152614633816145f7565b9050919050565b600082825260208201905092915050565b6000614656826142f6565b614660818561463a565b9350614670818560208601614301565b61467981613a92565b840191505092915050565b6000602082019050818103600083015261469e818461464b565b905092915050565b6146af81613ea8565b82525050565b6000819050919050565b6146c8816146b5565b82525050565b60006060820190506146e360008301866146a6565b6146f060208301856139ce565b6146fd60408301846146bf565b949350505050565b6000815190506147148161338d565b92915050565b6000602082840312156147305761472f613379565b5b600061473e84828501614705565b91505092915050565b7f5061757361626c653a206e6f7420706175736564000000000000000000000000600082015250565b600061477d601483613e2b565b915061478882614747565b602082019050919050565b600060208201905081810360008301526147ac81614770565b9050919050565b7f496e697469616c697a61626c653a20636f6e7472616374206973206e6f74206960008201527f6e697469616c697a696e67000000000000000000000000000000000000000000602082015250565b600061480f602b83613e2b565b915061481a826147b3565b604082019050919050565b6000602082019050818103600083015261483e81614802565b9050919050565b6000614851838561463a565b935061485e838584613f17565b61486783613a92565b840190509392505050565b600061014082019050614888600083018e6139ce565b614895602083018d6139ce565b6148a2604083018c61352b565b6148af606083018b61352b565b6148bc608083018a61352b565b6148c960a08301896139ce565b6148d660c08301886139ce565b6148e360e083018761352b565b6148f161010083018661352b565b818103610120830152614905818486614845565b90509c9b505050505050505050505050565b6000614923828e613ef5565b602082019150614933828d613ef5565b602082019150614943828c613ef5565b602082019150614953828b613ef5565b602082019150614963828a613ef5565b6020820191506149738289613ef5565b6020820191506149838288613ef5565b6020820191506149938287613ef5565b6020820191506149a38286613ef5565b6020820191506149b4828486613f26565b91508190509c9b50505050505050505050505056fea264697066735822122049ef9c176528cdf85d47108860f3f67a6f2bc87512c93f2be54e35612809232a64736f6c63430008090033",
  "linkReferences": {},
  "deployedLinkReferences": {}
}